{
  "_format": "hh-sol-artifact-1",
  "contractName": "FileHash",
  "sourceName": "contracts/FileHash.sol",
  "abi": [
    {
      "inputs": [
        {
          "internalType": "string",
          "name": "_uid",
          "type": "string"
        },
        {
          "internalType": "string",
          "name": "_code",
          "type": "string"
        },
        {
          "internalType": "string",
          "name": "_filehash",
          "type": "string"
        }
      ],
      "name": "addFile",
      "outputs": [],
      "stateMutability": "nonpayable",
      "type": "function"
    },
    {
      "inputs": [],
      "name": "getFiles",
      "outputs": [
        {
          "components": [
            {
              "internalType": "string",
              "name": "uid",
              "type": "string"
            },
            {
              "internalType": "string",
              "name": "code",
              "type": "string"
            },
            {
              "internalType": "string",
              "name": "filehash",
              "type": "string"
            }
          ],
          "internalType": "struct FileHash.File[]",
          "name": "",
          "type": "tuple[]"
        }
      ],
      "stateMutability": "view",
      "type": "function"
    }
  ],
  "bytecode": "0x608060405234801561001057600080fd5b50610833806100206000396000f3fe608060405234801561001057600080fd5b50600436106100365760003560e01c80632da96d731461003b578063d45a568514610059575b600080fd5b610043610075565b604051610050919061058a565b60405180910390f35b610073600480360381019061006e91906106f5565b61028a565b005b60606000805480602002602001604051908101604052809291908181526020016000905b8282101561028157838290600052602060002090600302016040518060600160405290816000820180546100cc906107cb565b80601f01602080910402602001604051908101604052809291908181526020018280546100f8906107cb565b80156101455780601f1061011a57610100808354040283529160200191610145565b820191906000526020600020905b81548152906001019060200180831161012857829003601f168201915b5050505050815260200160018201805461015e906107cb565b80601f016020809104026020016040519081016040528092919081815260200182805461018a906107cb565b80156101d75780601f106101ac576101008083540402835291602001916101d7565b820191906000526020600020905b8154815290600101906020018083116101ba57829003601f168201915b505050505081526020016002820180546101f0906107cb565b80601f016020809104026020016040519081016040528092919081815260200182805461021c906107cb565b80156102695780601f1061023e57610100808354040283529160200191610269565b820191906000526020600020905b81548152906001019060200180831161024c57829003601f168201915b50505050508152505081526020019060010190610099565b50505050905090565b6000604051806060016040528085815260200184815260200183815250908060018154018082558091505060019003906000526020600020906003020160009091909190915060008201518160000190805190602001906102ec92919061032e565b50602082015181600101908051906020019061030992919061032e565b50604082015181600201908051906020019061032692919061032e565b505050505050565b82805461033a906107cb565b90600052602060002090601f01602090048101928261035c57600085556103a3565b82601f1061037557805160ff19168380011785556103a3565b828001600101855582156103a3579182015b828111156103a2578251825591602001919060010190610387565b5b5090506103b091906103b4565b5090565b5b808211156103cd5760008160009055506001016103b5565b5090565b600081519050919050565b600082825260208201905092915050565b6000819050602082019050919050565b600081519050919050565b600082825260208201905092915050565b60005b8381101561043757808201518184015260208101905061041c565b83811115610446576000848401525b50505050565b6000601f19601f8301169050919050565b6000610468826103fd565b6104728185610408565b9350610482818560208601610419565b61048b8161044c565b840191505092915050565b600060608301600083015184820360008601526104b3828261045d565b915050602083015184820360208601526104cd828261045d565b915050604083015184820360408601526104e7828261045d565b9150508091505092915050565b60006105008383610496565b905092915050565b6000602082019050919050565b6000610520826103d1565b61052a81856103dc565b93508360208202850161053c856103ed565b8060005b85811015610578578484038952815161055985826104f4565b945061056483610508565b925060208a01995050600181019050610540565b50829750879550505050505092915050565b600060208201905081810360008301526105a48184610515565b905092915050565b6000604051905090565b600080fd5b600080fd5b600080fd5b600080fd5b7f4e487b7100000000000000000000000000000000000000000000000000000000600052604160045260246000fd5b6106028261044c565b810181811067ffffffffffffffff82111715610621576106206105ca565b5b80604052505050565b60006106346105ac565b905061064082826105f9565b919050565b600067ffffffffffffffff8211156106605761065f6105ca565b5b6106698261044c565b9050602081019050919050565b82818337600083830152505050565b600061069861069384610645565b61062a565b9050828152602081018484840111156106b4576106b36105c5565b5b6106bf848285610676565b509392505050565b600082601f8301126106dc576106db6105c0565b5b81356106ec848260208601610685565b91505092915050565b60008060006060848603121561070e5761070d6105b6565b5b600084013567ffffffffffffffff81111561072c5761072b6105bb565b5b610738868287016106c7565b935050602084013567ffffffffffffffff811115610759576107586105bb565b5b610765868287016106c7565b925050604084013567ffffffffffffffff811115610786576107856105bb565b5b610792868287016106c7565b9150509250925092565b7f4e487b7100000000000000000000000000000000000000000000000000000000600052602260045260246000fd5b600060028204905060018216806107e357607f821691505b602082108114156107f7576107f661079c565b5b5091905056fea26469706673582212202ed89ebb0b67b5a28cb00e50a4be0de2bac0b6ce23d810d7bb3a46a6d403e91164736f6c63430008090033",
  "linkReferences": {},
  "deployedLinkReferences": {}
}