{
  "_format": "hh-sol-artifact-1",
  "contractName": "InstituteandStudent",
  "sourceName": "contracts/InstituteandStudent.sol",
  "abi": [
    {
      "inputs": [
        {
          "internalType": "string",
          "name": "_name",
          "type": "string"
        },
        {
          "internalType": "string",
          "name": "_uid",
          "type": "string"
        },
        {
          "internalType": "string",
          "name": "_password",
          "type": "string"
        }
      ],
      "name": "addStudent",
      "outputs": [],
      "stateMutability": "nonpayable",
      "type": "function"
    },
    {
      "inputs": [
        {
          "internalType": "string",
          "name": "_name",
          "type": "string"
        },
        {
          "internalType": "string",
          "name": "_code",
          "type": "string"
        },
        {
          "internalType": "string",
          "name": "_password",
          "type": "string"
        }
      ],
      "name": "addUniversity",
      "outputs": [],
      "stateMutability": "nonpayable",
      "type": "function"
    },
    {
      "inputs": [
        {
          "internalType": "string",
          "name": "_uid",
          "type": "string"
        },
        {
          "internalType": "string",
          "name": "_code",
          "type": "string"
        }
      ],
      "name": "enrollStudent",
      "outputs": [],
      "stateMutability": "nonpayable",
      "type": "function"
    },
    {
      "inputs": [],
      "name": "getAllInstitutes",
      "outputs": [
        {
          "components": [
            {
              "internalType": "string",
              "name": "code",
              "type": "string"
            },
            {
              "internalType": "string",
              "name": "name",
              "type": "string"
            },
            {
              "internalType": "string",
              "name": "password",
              "type": "string"
            },
            {
              "internalType": "address",
              "name": "walletAddress",
              "type": "address"
            },
            {
              "internalType": "string[]",
              "name": "studentUIDs",
              "type": "string[]"
            }
          ],
          "internalType": "struct InstituteandStudent.Institutes[]",
          "name": "",
          "type": "tuple[]"
        }
      ],
      "stateMutability": "view",
      "type": "function"
    },
    {
      "inputs": [
        {
          "internalType": "string",
          "name": "_code",
          "type": "string"
        }
      ],
      "name": "getStudentsinUniversity",
      "outputs": [
        {
          "components": [
            {
              "internalType": "string",
              "name": "name",
              "type": "string"
            },
            {
              "internalType": "string",
              "name": "uid",
              "type": "string"
            },
            {
              "internalType": "string",
              "name": "password",
              "type": "string"
            },
            {
              "internalType": "address",
              "name": "walletAddress",
              "type": "address"
            },
            {
              "internalType": "string[]",
              "name": "instituteCode",
              "type": "string[]"
            }
          ],
          "internalType": "struct InstituteandStudent.Student[]",
          "name": "",
          "type": "tuple[]"
        }
      ],
      "stateMutability": "view",
      "type": "function"
    },
    {
      "inputs": [
        {
          "internalType": "string",
          "name": "_code",
          "type": "string"
        }
      ],
      "name": "getUniversity",
      "outputs": [
        {
          "internalType": "string",
          "name": "",
          "type": "string"
        },
        {
          "internalType": "string",
          "name": "",
          "type": "string"
        },
        {
          "internalType": "address",
          "name": "",
          "type": "address"
        },
        {
          "internalType": "string[]",
          "name": "",
          "type": "string[]"
        }
      ],
      "stateMutability": "view",
      "type": "function"
    },
    {
      "inputs": [
        {
          "internalType": "string",
          "name": "_uid",
          "type": "string"
        }
      ],
      "name": "getUniversityinStudent",
      "outputs": [
        {
          "components": [
            {
              "internalType": "string",
              "name": "code",
              "type": "string"
            },
            {
              "internalType": "string",
              "name": "name",
              "type": "string"
            },
            {
              "internalType": "string",
              "name": "password",
              "type": "string"
            },
            {
              "internalType": "address",
              "name": "walletAddress",
              "type": "address"
            },
            {
              "internalType": "string[]",
              "name": "studentUIDs",
              "type": "string[]"
            }
          ],
          "internalType": "struct InstituteandStudent.Institutes[]",
          "name": "",
          "type": "tuple[]"
        }
      ],
      "stateMutability": "view",
      "type": "function"
    },
    {
      "inputs": [
        {
          "internalType": "string",
          "name": "_uid",
          "type": "string"
        },
        {
          "internalType": "string",
          "name": "_password",
          "type": "string"
        }
      ],
      "name": "loginStudent",
      "outputs": [
        {
          "internalType": "string",
          "name": "",
          "type": "string"
        },
        {
          "internalType": "string",
          "name": "",
          "type": "string"
        },
        {
          "internalType": "address",
          "name": "",
          "type": "address"
        },
        {
          "internalType": "string[]",
          "name": "",
          "type": "string[]"
        }
      ],
      "stateMutability": "view",
      "type": "function"
    },
    {
      "inputs": [
        {
          "internalType": "string",
          "name": "_code",
          "type": "string"
        },
        {
          "internalType": "string",
          "name": "_password",
          "type": "string"
        }
      ],
      "name": "loginUniversity",
      "outputs": [
        {
          "internalType": "string",
          "name": "",
          "type": "string"
        },
        {
          "internalType": "string",
          "name": "",
          "type": "string"
        },
        {
          "internalType": "address",
          "name": "",
          "type": "address"
        },
        {
          "internalType": "string[]",
          "name": "",
          "type": "string[]"
        }
      ],
      "stateMutability": "view",
      "type": "function"
    }
  ],
  "bytecode": "0x608060405234801561001057600080fd5b50613184806100206000396000f3fe608060405234801561001057600080fd5b50600436106100935760003560e01c80636c342b60116100665780636c342b601461011e578063890cfd3d14610151578063aa518b9014610184578063d75162c5146101a0578063edd2cda3146101d357610093565b80630e9fc6d11461009857806330b37026146100c85780634bf0c2b3146100e45780636383838d14610100575b600080fd5b6100b260048036038101906100ad919061275c565b610203565b6040516100bf9190612a7d565b60405180910390f35b6100e260048036038101906100dd9190612a9f565b6107e0565b005b6100fe60048036038101906100f99190612b46565b610a2f565b005b610108610c2b565b6040516101159190612d0b565b60405180910390f35b61013860048036038101906101339190612b46565b610f6f565b6040516101489493929190612e0c565b60405180910390f35b61016b60048036038101906101669190612b46565b6113bf565b60405161017b9493929190612e0c565b60405180910390f35b61019e60048036038101906101999190612a9f565b61180f565b005b6101ba60048036038101906101b5919061275c565b611a5e565b6040516101ca9493929190612e0c565b60405180910390f35b6101ed60048036038101906101e8919061275c565b611e33565b6040516101fa9190612d0b565b60405180910390f35b606060005b60008054905081101561077d57826040516020016102269190612ea2565b60405160208183030381529060405280519060200120600082815481106102505761024f612eb9565b5b90600052602060002090600502016000016040516020016102719190612fdd565b60405160208183030381529060405280519060200120141561076a5760008082815481106102a2576102a1612eb9565b5b90600052602060002090600502016004018054905067ffffffffffffffff8111156102d0576102cf612631565b5b60405190808252806020026020018201604052801561030957816020015b6102f6612411565b8152602001906001900390816102ee5790505b50905060005b6000838154811061032357610322612eb9565b5b90600052602060002090600502016004018054905081101561075f5760005b60018054905081101561074b576000848154811061036357610362612eb9565b5b9060005260206000209060050201600401828154811061038657610385612eb9565b5b906000526020600020016040516020016103a09190612fdd565b60405160208183030381529060405280519060200120600182815481106103ca576103c9612eb9565b5b90600052602060002090600502016001016040516020016103eb9190612fdd565b604051602081830303815290604052805190602001201415610738576001818154811061041b5761041a612eb9565b5b90600052602060002090600502016040518060a001604052908160008201805461044490612f17565b80601f016020809104026020016040519081016040528092919081815260200182805461047090612f17565b80156104bd5780601f10610492576101008083540402835291602001916104bd565b820191906000526020600020905b8154815290600101906020018083116104a057829003601f168201915b505050505081526020016001820180546104d690612f17565b80601f016020809104026020016040519081016040528092919081815260200182805461050290612f17565b801561054f5780601f106105245761010080835404028352916020019161054f565b820191906000526020600020905b81548152906001019060200180831161053257829003601f168201915b5050505050815260200160028201805461056890612f17565b80601f016020809104026020016040519081016040528092919081815260200182805461059490612f17565b80156105e15780601f106105b6576101008083540402835291602001916105e1565b820191906000526020600020905b8154815290600101906020018083116105c457829003601f168201915b505050505081526020016003820160009054906101000a900473ffffffffffffffffffffffffffffffffffffffff1673ffffffffffffffffffffffffffffffffffffffff1673ffffffffffffffffffffffffffffffffffffffff16815260200160048201805480602002602001604051908101604052809291908181526020016000905b8282101561071157838290600052602060002001805461068490612f17565b80601f01602080910402602001604051908101604052809291908181526020018280546106b090612f17565b80156106fd5780601f106106d2576101008083540402835291602001916106fd565b820191906000526020600020905b8154815290600101906020018083116106e057829003601f168201915b505050505081526020019060010190610665565b505050508152505083838151811061072c5761072b612eb9565b5b60200260200101819052505b80806107439061302d565b915050610342565b5080806107579061302d565b91505061030f565b5080925050506107db565b80806107759061302d565b915050610208565b5060008067ffffffffffffffff81111561079a57610799612631565b5b6040519080825280602002602001820160405280156107d357816020015b6107c0612411565b8152602001906001900390816107b85790505b509050809150505b919050565b60005b6000805490508110156108b657826040516020016108019190612ea2565b604051602081830303815290604052805190602001206000828154811061082b5761082a612eb9565b5b906000526020600020906005020160000160405160200161084c9190612fdd565b6040516020818303038152906040528051906020012014156108a3576040517f08c379a000000000000000000000000000000000000000000000000000000000815260040161089a906130c2565b60405180910390fd5b80806108ae9061302d565b9150506107e3565b5060006040518060a001604052808481526020018581526020018381526020013373ffffffffffffffffffffffffffffffffffffffff168152602001600067ffffffffffffffff81111561090d5761090c612631565b5b60405190808252806020026020018201604052801561094057816020015b606081526020019060019003908161092b5790505b5081525090806001815401808255809150506001900390600052602060002090600502016000909190919091506000820151816000019080519060200190610989929190612456565b5060208201518160010190805190602001906109a6929190612456565b5060408201518160020190805190602001906109c3929190612456565b5060608201518160030160006101000a81548173ffffffffffffffffffffffffffffffffffffffff021916908373ffffffffffffffffffffffffffffffffffffffff1602179055506080820151816004019080519060200190610a279291906124dc565b505050505050565b60005b600080549050811015610b2a5781604051602001610a509190612ea2565b6040516020818303038152906040528051906020012060008281548110610a7a57610a79612eb9565b5b9060005260206000209060050201600001604051602001610a9b9190612fdd565b604051602081830303815290604052805190602001201415610b175760008181548110610acb57610aca612eb9565b5b906000526020600020906005020160040183908060018154018082558091505060019003906000526020600020016000909190919091509080519060200190610b15929190612456565b505b8080610b229061302d565b915050610a32565b5060005b600180549050811015610c265782604051602001610b4c9190612ea2565b6040516020818303038152906040528051906020012060018281548110610b7657610b75612eb9565b5b9060005260206000209060050201600101604051602001610b979190612fdd565b604051602081830303815290604052805190602001201415610c135760018181548110610bc757610bc6612eb9565b5b906000526020600020906005020160040182908060018154018082558091505060019003906000526020600020016000909190919091509080519060200190610c11929190612456565b505b8080610c1e9061302d565b915050610b2e565b505050565b60606000805480602002602001604051908101604052809291908181526020016000905b82821015610f6657838290600052602060002090600502016040518060a0016040529081600082018054610c8290612f17565b80601f0160208091040260200160405190810160405280929190818152602001828054610cae90612f17565b8015610cfb5780601f10610cd057610100808354040283529160200191610cfb565b820191906000526020600020905b815481529060010190602001808311610cde57829003601f168201915b50505050508152602001600182018054610d1490612f17565b80601f0160208091040260200160405190810160405280929190818152602001828054610d4090612f17565b8015610d8d5780601f10610d6257610100808354040283529160200191610d8d565b820191906000526020600020905b815481529060010190602001808311610d7057829003601f168201915b50505050508152602001600282018054610da690612f17565b80601f0160208091040260200160405190810160405280929190818152602001828054610dd290612f17565b8015610e1f5780601f10610df457610100808354040283529160200191610e1f565b820191906000526020600020905b815481529060010190602001808311610e0257829003601f168201915b505050505081526020016003820160009054906101000a900473ffffffffffffffffffffffffffffffffffffffff1673ffffffffffffffffffffffffffffffffffffffff1673ffffffffffffffffffffffffffffffffffffffff16815260200160048201805480602002602001604051908101604052809291908181526020016000905b82821015610f4f578382906000526020600020018054610ec290612f17565b80601f0160208091040260200160405190810160405280929190818152602001828054610eee90612f17565b8015610f3b5780601f10610f1057610100808354040283529160200191610f3b565b820191906000526020600020905b815481529060010190602001808311610f1e57829003601f168201915b505050505081526020019060010190610ea3565b505050508152505081526020019060010190610c4f565b50505050905090565b6060806000606060005b6000805490508110156113385786604051602001610f979190612ea2565b6040516020818303038152906040528051906020012060008281548110610fc157610fc0612eb9565b5b9060005260206000209060050201600001604051602001610fe29190612fdd565b604051602081830303815290604052805190602001201415611325578560405160200161100f9190612ea2565b604051602081830303815290604052805190602001206000828154811061103957611038612eb9565b5b906000526020600020906005020160020160405160200161105a9190612fdd565b604051602081830303815290604052805190602001201415611324576000818154811061108a57611089612eb9565b5b9060005260206000209060050201600001600082815481106110af576110ae612eb9565b5b9060005260206000209060050201600101600083815481106110d4576110d3612eb9565b5b906000526020600020906005020160030160009054906101000a900473ffffffffffffffffffffffffffffffffffffffff166000848154811061111a57611119612eb9565b5b906000526020600020906005020160040183805461113790612f17565b80601f016020809104026020016040519081016040528092919081815260200182805461116390612f17565b80156111b05780601f10611185576101008083540402835291602001916111b0565b820191906000526020600020905b81548152906001019060200180831161119357829003601f168201915b505050505093508280546111c390612f17565b80601f01602080910402602001604051908101604052809291908181526020018280546111ef90612f17565b801561123c5780601f106112115761010080835404028352916020019161123c565b820191906000526020600020905b81548152906001019060200180831161121f57829003601f168201915b5050505050925080805480602002602001604051908101604052809291908181526020016000905b8282101561131057838290600052602060002001805461128390612f17565b80601f01602080910402602001604051908101604052809291908181526020018280546112af90612f17565b80156112fc5780601f106112d1576101008083540402835291602001916112fc565b820191906000526020600020905b8154815290600101906020018083116112df57829003601f168201915b505050505081526020019060010190611264565b5050505090509450945094509450506113b6565b5b80806113309061302d565b915050610f79565b5060008067ffffffffffffffff81111561135557611354612631565b5b60405190808252806020026020018201604052801561138857816020015b60608152602001906001900390816113735790505b5060405180602001604052806000815250919060405180602001604052806000815250919093509350935093505b92959194509250565b6060806000606060005b60018054905081101561178857866040516020016113e79190612ea2565b604051602081830303815290604052805190602001206001828154811061141157611410612eb9565b5b90600052602060002090600502016001016040516020016114329190612fdd565b604051602081830303815290604052805190602001201415611775578560405160200161145f9190612ea2565b604051602081830303815290604052805190602001206001828154811061148957611488612eb9565b5b90600052602060002090600502016002016040516020016114aa9190612fdd565b60405160208183030381529060405280519060200120141561177457600181815481106114da576114d9612eb9565b5b9060005260206000209060050201600001600182815481106114ff576114fe612eb9565b5b90600052602060002090600502016001016001838154811061152457611523612eb9565b5b906000526020600020906005020160030160009054906101000a900473ffffffffffffffffffffffffffffffffffffffff166001848154811061156a57611569612eb9565b5b906000526020600020906005020160040183805461158790612f17565b80601f01602080910402602001604051908101604052809291908181526020018280546115b390612f17565b80156116005780601f106115d557610100808354040283529160200191611600565b820191906000526020600020905b8154815290600101906020018083116115e357829003601f168201915b5050505050935082805461161390612f17565b80601f016020809104026020016040519081016040528092919081815260200182805461163f90612f17565b801561168c5780601f106116615761010080835404028352916020019161168c565b820191906000526020600020905b81548152906001019060200180831161166f57829003601f168201915b5050505050925080805480602002602001604051908101604052809291908181526020016000905b828210156117605783829060005260206000200180546116d390612f17565b80601f01602080910402602001604051908101604052809291908181526020018280546116ff90612f17565b801561174c5780601f106117215761010080835404028352916020019161174c565b820191906000526020600020905b81548152906001019060200180831161172f57829003601f168201915b5050505050815260200190600101906116b4565b505050509050945094509450945050611806565b5b80806117809061302d565b9150506113c9565b5060008067ffffffffffffffff8111156117a5576117a4612631565b5b6040519080825280602002602001820160405280156117d857816020015b60608152602001906001900390816117c35790505b5060405180602001604052806000815250919060405180602001604052806000815250919093509350935093505b92959194509250565b60005b6001805490508110156118e557826040516020016118309190612ea2565b604051602081830303815290604052805190602001206001828154811061185a57611859612eb9565b5b906000526020600020906005020160010160405160200161187b9190612fdd565b6040516020818303038152906040528051906020012014156118d2576040517f08c379a00000000000000000000000000000000000000000000000000000000081526004016118c99061312e565b60405180910390fd5b80806118dd9061302d565b915050611812565b5060016040518060a001604052808581526020018481526020018381526020013373ffffffffffffffffffffffffffffffffffffffff168152602001600067ffffffffffffffff81111561193c5761193b612631565b5b60405190808252806020026020018201604052801561196f57816020015b606081526020019060019003908161195a5790505b50815250908060018154018082558091505060019003906000526020600020906005020160009091909190915060008201518160000190805190602001906119b8929190612456565b5060208201518160010190805190602001906119d5929190612456565b5060408201518160020190805190602001906119f2929190612456565b5060608201518160030160006101000a81548173ffffffffffffffffffffffffffffffffffffffff021916908373ffffffffffffffffffffffffffffffffffffffff1602179055506080820151816004019080519060200190611a569291906124dc565b505050505050565b6060806000606060005b600080549050811015611dae5785604051602001611a869190612ea2565b6040516020818303038152906040528051906020012060008281548110611ab057611aaf612eb9565b5b9060005260206000209060050201600001604051602001611ad19190612fdd565b604051602081830303815290604052805190602001201415611d9b5760008181548110611b0157611b00612eb9565b5b906000526020600020906005020160000160008281548110611b2657611b25612eb9565b5b906000526020600020906005020160010160008381548110611b4b57611b4a612eb9565b5b906000526020600020906005020160030160009054906101000a900473ffffffffffffffffffffffffffffffffffffffff1660008481548110611b9157611b90612eb9565b5b9060005260206000209060050201600401838054611bae90612f17565b80601f0160208091040260200160405190810160405280929190818152602001828054611bda90612f17565b8015611c275780601f10611bfc57610100808354040283529160200191611c27565b820191906000526020600020905b815481529060010190602001808311611c0a57829003601f168201915b50505050509350828054611c3a90612f17565b80601f0160208091040260200160405190810160405280929190818152602001828054611c6690612f17565b8015611cb35780601f10611c8857610100808354040283529160200191611cb3565b820191906000526020600020905b815481529060010190602001808311611c9657829003601f168201915b5050505050925080805480602002602001604051908101604052809291908181526020016000905b82821015611d87578382906000526020600020018054611cfa90612f17565b80601f0160208091040260200160405190810160405280929190818152602001828054611d2690612f17565b8015611d735780601f10611d4857610100808354040283529160200191611d73565b820191906000526020600020905b815481529060010190602001808311611d5657829003601f168201915b505050505081526020019060010190611cdb565b505050509050945094509450945050611e2c565b8080611da69061302d565b915050611a68565b5060008067ffffffffffffffff811115611dcb57611dca612631565b5b604051908082528060200260200182016040528015611dfe57816020015b6060815260200190600190039081611de95790505b5060405180602001604052806000815250919060405180602001604052806000815250919093509350935093505b9193509193565b606060005b6001805490508110156123ae5782604051602001611e569190612ea2565b6040516020818303038152906040528051906020012060018281548110611e8057611e7f612eb9565b5b9060005260206000209060050201600101604051602001611ea19190612fdd565b60405160208183030381529060405280519060200120141561239b57600060018281548110611ed357611ed2612eb9565b5b90600052602060002090600502016004018054905067ffffffffffffffff811115611f0157611f00612631565b5b604051908082528060200260200182016040528015611f3a57816020015b611f2761253c565b815260200190600190039081611f1f5790505b50905060005b60018381548110611f5457611f53612eb9565b5b9060005260206000209060050201600401805490508110156123905760005b60008054905081101561237c5760018481548110611f9457611f93612eb9565b5b90600052602060002090600502016004018281548110611fb757611fb6612eb9565b5b90600052602060002001604051602001611fd19190612fdd565b6040516020818303038152906040528051906020012060008281548110611ffb57611ffa612eb9565b5b906000526020600020906005020160000160405160200161201c9190612fdd565b604051602081830303815290604052805190602001201415612369576000818154811061204c5761204b612eb9565b5b90600052602060002090600502016040518060a001604052908160008201805461207590612f17565b80601f01602080910402602001604051908101604052809291908181526020018280546120a190612f17565b80156120ee5780601f106120c3576101008083540402835291602001916120ee565b820191906000526020600020905b8154815290600101906020018083116120d157829003601f168201915b5050505050815260200160018201805461210790612f17565b80601f016020809104026020016040519081016040528092919081815260200182805461213390612f17565b80156121805780601f1061215557610100808354040283529160200191612180565b820191906000526020600020905b81548152906001019060200180831161216357829003601f168201915b5050505050815260200160028201805461219990612f17565b80601f01602080910402602001604051908101604052809291908181526020018280546121c590612f17565b80156122125780601f106121e757610100808354040283529160200191612212565b820191906000526020600020905b8154815290600101906020018083116121f557829003601f168201915b505050505081526020016003820160009054906101000a900473ffffffffffffffffffffffffffffffffffffffff1673ffffffffffffffffffffffffffffffffffffffff1673ffffffffffffffffffffffffffffffffffffffff16815260200160048201805480602002602001604051908101604052809291908181526020016000905b828210156123425783829060005260206000200180546122b590612f17565b80601f01602080910402602001604051908101604052809291908181526020018280546122e190612f17565b801561232e5780601f106123035761010080835404028352916020019161232e565b820191906000526020600020905b81548152906001019060200180831161231157829003601f168201915b505050505081526020019060010190612296565b505050508152505083838151811061235d5761235c612eb9565b5b60200260200101819052505b80806123749061302d565b915050611f73565b5080806123889061302d565b915050611f40565b50809250505061240c565b80806123a69061302d565b915050611e38565b5060008067ffffffffffffffff8111156123cb576123ca612631565b5b60405190808252806020026020018201604052801561240457816020015b6123f161253c565b8152602001906001900390816123e95790505b509050809150505b919050565b6040518060a00160405280606081526020016060815260200160608152602001600073ffffffffffffffffffffffffffffffffffffffff168152602001606081525090565b82805461246290612f17565b90600052602060002090601f01602090048101928261248457600085556124cb565b82601f1061249d57805160ff19168380011785556124cb565b828001600101855582156124cb579182015b828111156124ca5782518255916020019190600101906124af565b5b5090506124d89190612581565b5090565b82805482825590600052602060002090810192821561252b579160200282015b8281111561252a57825182908051906020019061251a929190612456565b50916020019190600101906124fc565b5b509050612538919061259e565b5090565b6040518060a00160405280606081526020016060815260200160608152602001600073ffffffffffffffffffffffffffffffffffffffff168152602001606081525090565b5b8082111561259a576000816000905550600101612582565b5090565b5b808211156125be57600081816125b591906125c2565b5060010161259f565b5090565b5080546125ce90612f17565b6000825580601f106125e057506125ff565b601f0160209004906000526020600020908101906125fe9190612581565b5b50565b6000604051905090565b600080fd5b600080fd5b600080fd5b600080fd5b6000601f19601f8301169050919050565b7f4e487b7100000000000000000000000000000000000000000000000000000000600052604160045260246000fd5b61266982612620565b810181811067ffffffffffffffff8211171561268857612687612631565b5b80604052505050565b600061269b612602565b90506126a78282612660565b919050565b600067ffffffffffffffff8211156126c7576126c6612631565b5b6126d082612620565b9050602081019050919050565b82818337600083830152505050565b60006126ff6126fa846126ac565b612691565b90508281526020810184848401111561271b5761271a61261b565b5b6127268482856126dd565b509392505050565b600082601f83011261274357612742612616565b5b81356127538482602086016126ec565b91505092915050565b6000602082840312156127725761277161260c565b5b600082013567ffffffffffffffff8111156127905761278f612611565b5b61279c8482850161272e565b91505092915050565b600081519050919050565b600082825260208201905092915050565b6000819050602082019050919050565b600081519050919050565b600082825260208201905092915050565b60005b8381101561280b5780820151818401526020810190506127f0565b8381111561281a576000848401525b50505050565b600061282b826127d1565b61283581856127dc565b93506128458185602086016127ed565b61284e81612620565b840191505092915050565b600073ffffffffffffffffffffffffffffffffffffffff82169050919050565b600061288482612859565b9050919050565b61289481612879565b82525050565b600081519050919050565b600082825260208201905092915050565b6000819050602082019050919050565b60006128d28383612820565b905092915050565b6000602082019050919050565b60006128f28261289a565b6128fc81856128a5565b93508360208202850161290e856128b6565b8060005b8581101561294a578484038952815161292b85826128c6565b9450612936836128da565b925060208a01995050600181019050612912565b50829750879550505050505092915050565b600060a08301600083015184820360008601526129798282612820565b915050602083015184820360208601526129938282612820565b915050604083015184820360408601526129ad8282612820565b91505060608301516129c2606086018261288b565b50608083015184820360808601526129da82826128e7565b9150508091505092915050565b60006129f3838361295c565b905092915050565b6000602082019050919050565b6000612a13826127a5565b612a1d81856127b0565b935083602082028501612a2f856127c1565b8060005b85811015612a6b5784840389528151612a4c85826129e7565b9450612a57836129fb565b925060208a01995050600181019050612a33565b50829750879550505050505092915050565b60006020820190508181036000830152612a978184612a08565b905092915050565b600080600060608486031215612ab857612ab761260c565b5b600084013567ffffffffffffffff811115612ad657612ad5612611565b5b612ae28682870161272e565b935050602084013567ffffffffffffffff811115612b0357612b02612611565b5b612b0f8682870161272e565b925050604084013567ffffffffffffffff811115612b3057612b2f612611565b5b612b3c8682870161272e565b9150509250925092565b60008060408385031215612b5d57612b5c61260c565b5b600083013567ffffffffffffffff811115612b7b57612b7a612611565b5b612b878582860161272e565b925050602083013567ffffffffffffffff811115612ba857612ba7612611565b5b612bb48582860161272e565b9150509250929050565b600081519050919050565b600082825260208201905092915050565b6000819050602082019050919050565b600060a0830160008301518482036000860152612c078282612820565b91505060208301518482036020860152612c218282612820565b91505060408301518482036040860152612c3b8282612820565b9150506060830151612c50606086018261288b565b5060808301518482036080860152612c6882826128e7565b9150508091505092915050565b6000612c818383612bea565b905092915050565b6000602082019050919050565b6000612ca182612bbe565b612cab8185612bc9565b935083602082028501612cbd85612bda565b8060005b85811015612cf95784840389528151612cda8582612c75565b9450612ce583612c89565b925060208a01995050600181019050612cc1565b50829750879550505050505092915050565b60006020820190508181036000830152612d258184612c96565b905092915050565b600082825260208201905092915050565b6000612d49826127d1565b612d538185612d2d565b9350612d638185602086016127ed565b612d6c81612620565b840191505092915050565b612d8081612879565b82525050565b600082825260208201905092915050565b6000612da28261289a565b612dac8185612d86565b935083602082028501612dbe856128b6565b8060005b85811015612dfa5784840389528151612ddb85826128c6565b9450612de6836128da565b925060208a01995050600181019050612dc2565b50829750879550505050505092915050565b60006080820190508181036000830152612e268187612d3e565b90508181036020830152612e3a8186612d3e565b9050612e496040830185612d77565b8181036060830152612e5b8184612d97565b905095945050505050565b600081905092915050565b6000612e7c826127d1565b612e868185612e66565b9350612e968185602086016127ed565b80840191505092915050565b6000612eae8284612e71565b915081905092915050565b7f4e487b7100000000000000000000000000000000000000000000000000000000600052603260045260246000fd5b7f4e487b7100000000000000000000000000000000000000000000000000000000600052602260045260246000fd5b60006002820490506001821680612f2f57607f821691505b60208210811415612f4357612f42612ee8565b5b50919050565b60008190508160005260206000209050919050565b60008154612f6b81612f17565b612f758186612e66565b94506001821660008114612f905760018114612fa157612fd4565b60ff19831686528186019350612fd4565b612faa85612f49565b60005b83811015612fcc57815481890152600182019150602081019050612fad565b838801955050505b50505092915050565b6000612fe98284612f5e565b915081905092915050565b7f4e487b7100000000000000000000000000000000000000000000000000000000600052601160045260246000fd5b6000819050919050565b600061303882613023565b91507fffffffffffffffffffffffffffffffffffffffffffffffffffffffffffffffff82141561306b5761306a612ff4565b5b600182019050919050565b7f556e697665727369747920616c72656164792065786973747300000000000000600082015250565b60006130ac601983612d2d565b91506130b782613076565b602082019050919050565b600060208201905081810360008301526130db8161309f565b9050919050565b7f53747564656e7420616c72656164792065786973747300000000000000000000600082015250565b6000613118601683612d2d565b9150613123826130e2565b602082019050919050565b600060208201905081810360008301526131478161310b565b905091905056fea264697066735822122089dd8b0a68ec37fed8e52496a23353ae0d7779029c4c5df3ef1e8f8949b3289f64736f6c63430008090033",
  "linkReferences": {},
  "deployedLinkReferences": {}
}