{
  "_format": "hh-sol-artifact-1",
  "contractName": "InstituteandStudent",
  "sourceName": "contracts/InstituteandStudent.sol",
  "abi": [
    {
      "inputs": [
        {
          "internalType": "string",
          "name": "_name",
          "type": "string"
        },
        {
          "internalType": "string",
          "name": "_uid",
          "type": "string"
        },
        {
          "internalType": "string",
          "name": "_password",
          "type": "string"
        }
      ],
      "name": "addStudent",
      "outputs": [],
      "stateMutability": "nonpayable",
      "type": "function"
    },
    {
      "inputs": [
        {
          "internalType": "string",
          "name": "_uid",
          "type": "string"
        },
        {
          "internalType": "uint256",
          "name": "_credits",
          "type": "uint256"
        }
      ],
      "name": "addStudentCredit",
      "outputs": [],
      "stateMutability": "nonpayable",
      "type": "function"
    },
    {
      "inputs": [
        {
          "internalType": "string",
          "name": "_name",
          "type": "string"
        },
        {
          "internalType": "string",
          "name": "_code",
          "type": "string"
        },
        {
          "internalType": "string",
          "name": "_password",
          "type": "string"
        }
      ],
      "name": "addUniversity",
      "outputs": [],
      "stateMutability": "nonpayable",
      "type": "function"
    },
    {
      "inputs": [
        {
          "internalType": "string",
          "name": "_uid",
          "type": "string"
        },
        {
          "internalType": "string",
          "name": "_code",
          "type": "string"
        }
      ],
      "name": "enrollStudent",
      "outputs": [],
      "stateMutability": "nonpayable",
      "type": "function"
    },
    {
      "inputs": [],
      "name": "getAllInstitutes",
      "outputs": [
        {
          "components": [
            {
              "internalType": "string",
              "name": "code",
              "type": "string"
            },
            {
              "internalType": "string",
              "name": "name",
              "type": "string"
            },
            {
              "internalType": "string",
              "name": "password",
              "type": "string"
            },
            {
              "internalType": "address",
              "name": "walletAddress",
              "type": "address"
            },
            {
              "internalType": "string[]",
              "name": "studentUIDs",
              "type": "string[]"
            }
          ],
          "internalType": "struct InstituteandStudent.Institutes[]",
          "name": "",
          "type": "tuple[]"
        }
      ],
      "stateMutability": "view",
      "type": "function"
    },
    {
      "inputs": [
        {
          "internalType": "string",
          "name": "_uid",
          "type": "string"
        }
      ],
      "name": "getStudentCredit",
      "outputs": [
        {
          "internalType": "uint256",
          "name": "",
          "type": "uint256"
        }
      ],
      "stateMutability": "view",
      "type": "function"
    },
    {
      "inputs": [
        {
          "internalType": "string",
          "name": "_uid",
          "type": "string"
        }
      ],
      "name": "getStudentInfo",
      "outputs": [
        {
          "internalType": "string",
          "name": "",
          "type": "string"
        },
        {
          "internalType": "string",
          "name": "",
          "type": "string"
        },
        {
          "internalType": "address",
          "name": "",
          "type": "address"
        },
        {
          "internalType": "string[]",
          "name": "",
          "type": "string[]"
        },
        {
          "internalType": "uint256",
          "name": "",
          "type": "uint256"
        }
      ],
      "stateMutability": "view",
      "type": "function"
    },
    {
      "inputs": [
        {
          "internalType": "string",
          "name": "_code",
          "type": "string"
        }
      ],
      "name": "getStudentsinUniversity",
      "outputs": [
        {
          "components": [
            {
              "internalType": "string",
              "name": "name",
              "type": "string"
            },
            {
              "internalType": "string",
              "name": "uid",
              "type": "string"
            },
            {
              "internalType": "string",
              "name": "password",
              "type": "string"
            },
            {
              "internalType": "address",
              "name": "walletAddress",
              "type": "address"
            },
            {
              "internalType": "string[]",
              "name": "instituteCode",
              "type": "string[]"
            },
            {
              "internalType": "uint256",
              "name": "credits",
              "type": "uint256"
            }
          ],
          "internalType": "struct InstituteandStudent.Student[]",
          "name": "",
          "type": "tuple[]"
        }
      ],
      "stateMutability": "view",
      "type": "function"
    },
    {
      "inputs": [
        {
          "internalType": "string",
          "name": "_code",
          "type": "string"
        }
      ],
      "name": "getUniversity",
      "outputs": [
        {
          "internalType": "string",
          "name": "",
          "type": "string"
        },
        {
          "internalType": "string",
          "name": "",
          "type": "string"
        },
        {
          "internalType": "address",
          "name": "",
          "type": "address"
        },
        {
          "internalType": "string[]",
          "name": "",
          "type": "string[]"
        }
      ],
      "stateMutability": "view",
      "type": "function"
    },
    {
      "inputs": [
        {
          "internalType": "string",
          "name": "_uid",
          "type": "string"
        }
      ],
      "name": "getUniversityinStudent",
      "outputs": [
        {
          "components": [
            {
              "internalType": "string",
              "name": "code",
              "type": "string"
            },
            {
              "internalType": "string",
              "name": "name",
              "type": "string"
            },
            {
              "internalType": "string",
              "name": "password",
              "type": "string"
            },
            {
              "internalType": "address",
              "name": "walletAddress",
              "type": "address"
            },
            {
              "internalType": "string[]",
              "name": "studentUIDs",
              "type": "string[]"
            }
          ],
          "internalType": "struct InstituteandStudent.Institutes[]",
          "name": "",
          "type": "tuple[]"
        }
      ],
      "stateMutability": "view",
      "type": "function"
    },
    {
      "inputs": [
        {
          "internalType": "string",
          "name": "_uid",
          "type": "string"
        },
        {
          "internalType": "string",
          "name": "_password",
          "type": "string"
        }
      ],
      "name": "loginStudent",
      "outputs": [
        {
          "internalType": "string",
          "name": "",
          "type": "string"
        },
        {
          "internalType": "string",
          "name": "",
          "type": "string"
        },
        {
          "internalType": "address",
          "name": "",
          "type": "address"
        },
        {
          "internalType": "string[]",
          "name": "",
          "type": "string[]"
        }
      ],
      "stateMutability": "view",
      "type": "function"
    },
    {
      "inputs": [
        {
          "internalType": "string",
          "name": "_code",
          "type": "string"
        },
        {
          "internalType": "string",
          "name": "_password",
          "type": "string"
        }
      ],
      "name": "loginUniversity",
      "outputs": [
        {
          "internalType": "string",
          "name": "",
          "type": "string"
        },
        {
          "internalType": "string",
          "name": "",
          "type": "string"
        },
        {
          "internalType": "address",
          "name": "",
          "type": "address"
        },
        {
          "internalType": "string[]",
          "name": "",
          "type": "string[]"
        }
      ],
      "stateMutability": "view",
      "type": "function"
    }
  ],
  "bytecode": "0x608060405234801561001057600080fd5b5061399f806100206000396000f3fe608060405234801561001057600080fd5b50600436106100b45760003560e01c80636c342b60116100715780636c342b601461018f578063890cfd3d146101c25780639b968ced146101f5578063aa518b9014610225578063d75162c514610241578063edd2cda314610274576100b4565b80630a739dc4146100b95780630e9fc6d1146100ed57806330b370261461011d5780634bf0c2b3146101395780635c74d7a6146101555780636383838d14610171575b600080fd5b6100d360048036038101906100ce9190612de5565b6102a4565b6040516100e495949392919061301c565b60405180910390f35b61010760048036038101906101029190612de5565b6106ae565b6040516101149190613288565b60405180910390f35b610137600480360381019061013291906132aa565b610c95565b005b610153600480360381019061014e9190613351565b610ee4565b005b61016f600480360381019061016a91906133f5565b6110e0565b005b6101796111c3565b604051610186919061359e565b60405180910390f35b6101a960048036038101906101a49190613351565b611507565b6040516101b994939291906135c0565b60405180910390f35b6101dc60048036038101906101d79190613351565b611957565b6040516101ec94939291906135c0565b60405180910390f35b61020f600480360381019061020a9190612de5565b611da7565b60405161021c919061361a565b60405180910390f35b61023f600480360381019061023a91906132aa565b611e80565b005b61025b60048036038101906102569190612de5565b6120e0565b60405161026b94939291906135c0565b60405180910390f35b61028e60048036038101906102899190612de5565b6124b5565b60405161029b919061359e565b60405180910390f35b60608060006060600080600090505b60018054905081101561062157866040516020016102d19190613671565b60405160208183030381529060405280519060200120600182815481106102fb576102fa613688565b5b906000526020600020906006020160010160405160200161031c91906137ac565b60405160208183030381529060405280519060200120141561060e576001818154811061034c5761034b613688565b5b90600052602060002090600602016000016001828154811061037157610370613688565b5b90600052602060002090600602016002016001838154811061039657610395613688565b5b906000526020600020906006020160030160009054906101000a900473ffffffffffffffffffffffffffffffffffffffff16600184815481106103dc576103db613688565b5b90600052602060002090600602016004016001858154811061040157610400613688565b5b90600052602060002090600602016005015484805461041f906136e6565b80601f016020809104026020016040519081016040528092919081815260200182805461044b906136e6565b80156104985780601f1061046d57610100808354040283529160200191610498565b820191906000526020600020905b81548152906001019060200180831161047b57829003601f168201915b505050505094508380546104ab906136e6565b80601f01602080910402602001604051908101604052809291908181526020018280546104d7906136e6565b80156105245780601f106104f957610100808354040283529160200191610524565b820191906000526020600020905b81548152906001019060200180831161050757829003601f168201915b5050505050935081805480602002602001604051908101604052809291908181526020016000905b828210156105f857838290600052602060002001805461056b906136e6565b80601f0160208091040260200160405190810160405280929190818152602001828054610597906136e6565b80156105e45780601f106105b9576101008083540402835291602001916105e4565b820191906000526020600020905b8154815290600101906020018083116105c757829003601f168201915b50505050508152602001906001019061054c565b50505050915095509550955095509550506106a5565b8080610619906137f2565b9150506102b3565b5060008067ffffffffffffffff81111561063e5761063d612cba565b5b60405190808252806020026020018201604052801561067157816020015b606081526020019060019003908161065c5790505b5060006040518060200160405280600081525092919060405180602001604052806000815250929190945094509450945094505b91939590929450565b606060005b600080549050811015610c3257826040516020016106d19190613671565b60405160208183030381529060405280519060200120600082815481106106fb576106fa613688565b5b906000526020600020906005020160000160405160200161071c91906137ac565b604051602081830303815290604052805190602001201415610c1f57600080828154811061074d5761074c613688565b5b90600052602060002090600502016004018054905067ffffffffffffffff81111561077b5761077a612cba565b5b6040519080825280602002602001820160405280156107b457816020015b6107a1612a93565b8152602001906001900390816107995790505b50905060005b600083815481106107ce576107cd613688565b5b906000526020600020906005020160040180549050811015610c145760005b600180549050811015610c00576000848154811061080e5761080d613688565b5b9060005260206000209060050201600401828154811061083157610830613688565b5b9060005260206000200160405160200161084b91906137ac565b604051602081830303815290604052805190602001206001828154811061087557610874613688565b5b906000526020600020906006020160010160405160200161089691906137ac565b604051602081830303815290604052805190602001201415610bed57600181815481106108c6576108c5613688565b5b90600052602060002090600602016040518060c00160405290816000820180546108ef906136e6565b80601f016020809104026020016040519081016040528092919081815260200182805461091b906136e6565b80156109685780601f1061093d57610100808354040283529160200191610968565b820191906000526020600020905b81548152906001019060200180831161094b57829003601f168201915b50505050508152602001600182018054610981906136e6565b80601f01602080910402602001604051908101604052809291908181526020018280546109ad906136e6565b80156109fa5780601f106109cf576101008083540402835291602001916109fa565b820191906000526020600020905b8154815290600101906020018083116109dd57829003601f168201915b50505050508152602001600282018054610a13906136e6565b80601f0160208091040260200160405190810160405280929190818152602001828054610a3f906136e6565b8015610a8c5780601f10610a6157610100808354040283529160200191610a8c565b820191906000526020600020905b815481529060010190602001808311610a6f57829003601f168201915b505050505081526020016003820160009054906101000a900473ffffffffffffffffffffffffffffffffffffffff1673ffffffffffffffffffffffffffffffffffffffff1673ffffffffffffffffffffffffffffffffffffffff16815260200160048201805480602002602001604051908101604052809291908181526020016000905b82821015610bbc578382906000526020600020018054610b2f906136e6565b80601f0160208091040260200160405190810160405280929190818152602001828054610b5b906136e6565b8015610ba85780601f10610b7d57610100808354040283529160200191610ba8565b820191906000526020600020905b815481529060010190602001808311610b8b57829003601f168201915b505050505081526020019060010190610b10565b505050508152602001600582015481525050838381518110610be157610be0613688565b5b60200260200101819052505b8080610bf8906137f2565b9150506107ed565b508080610c0c906137f2565b9150506107ba565b508092505050610c90565b8080610c2a906137f2565b9150506106b3565b5060008067ffffffffffffffff811115610c4f57610c4e612cba565b5b604051908082528060200260200182016040528015610c8857816020015b610c75612a93565b815260200190600190039081610c6d5790505b509050809150505b919050565b60005b600080549050811015610d6b5782604051602001610cb69190613671565b6040516020818303038152906040528051906020012060008281548110610ce057610cdf613688565b5b9060005260206000209060050201600001604051602001610d0191906137ac565b604051602081830303815290604052805190602001201415610d58576040517f08c379a0000000000000000000000000000000000000000000000000000000008152600401610d4f90613887565b60405180910390fd5b8080610d63906137f2565b915050610c98565b5060006040518060a001604052808481526020018581526020018381526020013373ffffffffffffffffffffffffffffffffffffffff168152602001600067ffffffffffffffff811115610dc257610dc1612cba565b5b604051908082528060200260200182016040528015610df557816020015b6060815260200190600190039081610de05790505b5081525090806001815401808255809150506001900390600052602060002090600502016000909190919091506000820151816000019080519060200190610e3e929190612adf565b506020820151816001019080519060200190610e5b929190612adf565b506040820151816002019080519060200190610e78929190612adf565b5060608201518160030160006101000a81548173ffffffffffffffffffffffffffffffffffffffff021916908373ffffffffffffffffffffffffffffffffffffffff1602179055506080820151816004019080519060200190610edc929190612b65565b505050505050565b60005b600080549050811015610fdf5781604051602001610f059190613671565b6040516020818303038152906040528051906020012060008281548110610f2f57610f2e613688565b5b9060005260206000209060050201600001604051602001610f5091906137ac565b604051602081830303815290604052805190602001201415610fcc5760008181548110610f8057610f7f613688565b5b906000526020600020906005020160040183908060018154018082558091505060019003906000526020600020016000909190919091509080519060200190610fca929190612adf565b505b8080610fd7906137f2565b915050610ee7565b5060005b6001805490508110156110db57826040516020016110019190613671565b604051602081830303815290604052805190602001206001828154811061102b5761102a613688565b5b906000526020600020906006020160010160405160200161104c91906137ac565b6040516020818303038152906040528051906020012014156110c8576001818154811061107c5761107b613688565b5b9060005260206000209060060201600401829080600181540180825580915050600190039060005260206000200160009091909190915090805190602001906110c6929190612adf565b505b80806110d3906137f2565b915050610fe3565b505050565b60005b6001805490508110156111bd57826040516020016111019190613671565b604051602081830303815290604052805190602001206001828154811061112b5761112a613688565b5b906000526020600020906006020160010160405160200161114c91906137ac565b6040516020818303038152906040528051906020012014156111aa57816001828154811061117d5761117c613688565b5b9060005260206000209060060201600501600082825461119d91906138a7565b92505081905550506111bf565b80806111b5906137f2565b9150506110e3565b505b5050565b60606000805480602002602001604051908101604052809291908181526020016000905b828210156114fe57838290600052602060002090600502016040518060a001604052908160008201805461121a906136e6565b80601f0160208091040260200160405190810160405280929190818152602001828054611246906136e6565b80156112935780601f1061126857610100808354040283529160200191611293565b820191906000526020600020905b81548152906001019060200180831161127657829003601f168201915b505050505081526020016001820180546112ac906136e6565b80601f01602080910402602001604051908101604052809291908181526020018280546112d8906136e6565b80156113255780601f106112fa57610100808354040283529160200191611325565b820191906000526020600020905b81548152906001019060200180831161130857829003601f168201915b5050505050815260200160028201805461133e906136e6565b80601f016020809104026020016040519081016040528092919081815260200182805461136a906136e6565b80156113b75780601f1061138c576101008083540402835291602001916113b7565b820191906000526020600020905b81548152906001019060200180831161139a57829003601f168201915b505050505081526020016003820160009054906101000a900473ffffffffffffffffffffffffffffffffffffffff1673ffffffffffffffffffffffffffffffffffffffff1673ffffffffffffffffffffffffffffffffffffffff16815260200160048201805480602002602001604051908101604052809291908181526020016000905b828210156114e757838290600052602060002001805461145a906136e6565b80601f0160208091040260200160405190810160405280929190818152602001828054611486906136e6565b80156114d35780601f106114a8576101008083540402835291602001916114d3565b820191906000526020600020905b8154815290600101906020018083116114b657829003601f168201915b50505050508152602001906001019061143b565b5050505081525050815260200190600101906111e7565b50505050905090565b6060806000606060005b6000805490508110156118d0578660405160200161152f9190613671565b604051602081830303815290604052805190602001206000828154811061155957611558613688565b5b906000526020600020906005020160000160405160200161157a91906137ac565b6040516020818303038152906040528051906020012014156118bd57856040516020016115a79190613671565b60405160208183030381529060405280519060200120600082815481106115d1576115d0613688565b5b90600052602060002090600502016002016040516020016115f291906137ac565b6040516020818303038152906040528051906020012014156118bc576000818154811061162257611621613688565b5b90600052602060002090600502016000016000828154811061164757611646613688565b5b90600052602060002090600502016001016000838154811061166c5761166b613688565b5b906000526020600020906005020160030160009054906101000a900473ffffffffffffffffffffffffffffffffffffffff16600084815481106116b2576116b1613688565b5b90600052602060002090600502016004018380546116cf906136e6565b80601f01602080910402602001604051908101604052809291908181526020018280546116fb906136e6565b80156117485780601f1061171d57610100808354040283529160200191611748565b820191906000526020600020905b81548152906001019060200180831161172b57829003601f168201915b5050505050935082805461175b906136e6565b80601f0160208091040260200160405190810160405280929190818152602001828054611787906136e6565b80156117d45780601f106117a9576101008083540402835291602001916117d4565b820191906000526020600020905b8154815290600101906020018083116117b757829003601f168201915b5050505050925080805480602002602001604051908101604052809291908181526020016000905b828210156118a857838290600052602060002001805461181b906136e6565b80601f0160208091040260200160405190810160405280929190818152602001828054611847906136e6565b80156118945780601f1061186957610100808354040283529160200191611894565b820191906000526020600020905b81548152906001019060200180831161187757829003601f168201915b5050505050815260200190600101906117fc565b50505050905094509450945094505061194e565b5b80806118c8906137f2565b915050611511565b5060008067ffffffffffffffff8111156118ed576118ec612cba565b5b60405190808252806020026020018201604052801561192057816020015b606081526020019060019003908161190b5790505b5060405180602001604052806000815250919060405180602001604052806000815250919093509350935093505b92959194509250565b6060806000606060005b600180549050811015611d20578660405160200161197f9190613671565b60405160208183030381529060405280519060200120600182815481106119a9576119a8613688565b5b90600052602060002090600602016001016040516020016119ca91906137ac565b604051602081830303815290604052805190602001201415611d0d57856040516020016119f79190613671565b6040516020818303038152906040528051906020012060018281548110611a2157611a20613688565b5b9060005260206000209060060201600201604051602001611a4291906137ac565b604051602081830303815290604052805190602001201415611d0c5760018181548110611a7257611a71613688565b5b906000526020600020906006020160000160018281548110611a9757611a96613688565b5b906000526020600020906006020160010160018381548110611abc57611abb613688565b5b906000526020600020906006020160030160009054906101000a900473ffffffffffffffffffffffffffffffffffffffff1660018481548110611b0257611b01613688565b5b9060005260206000209060060201600401838054611b1f906136e6565b80601f0160208091040260200160405190810160405280929190818152602001828054611b4b906136e6565b8015611b985780601f10611b6d57610100808354040283529160200191611b98565b820191906000526020600020905b815481529060010190602001808311611b7b57829003601f168201915b50505050509350828054611bab906136e6565b80601f0160208091040260200160405190810160405280929190818152602001828054611bd7906136e6565b8015611c245780601f10611bf957610100808354040283529160200191611c24565b820191906000526020600020905b815481529060010190602001808311611c0757829003601f168201915b5050505050925080805480602002602001604051908101604052809291908181526020016000905b82821015611cf8578382906000526020600020018054611c6b906136e6565b80601f0160208091040260200160405190810160405280929190818152602001828054611c97906136e6565b8015611ce45780601f10611cb957610100808354040283529160200191611ce4565b820191906000526020600020905b815481529060010190602001808311611cc757829003601f168201915b505050505081526020019060010190611c4c565b505050509050945094509450945050611d9e565b5b8080611d18906137f2565b915050611961565b5060008067ffffffffffffffff811115611d3d57611d3c612cba565b5b604051908082528060200260200182016040528015611d7057816020015b6060815260200190600190039081611d5b5790505b5060405180602001604052806000815250919060405180602001604052806000815250919093509350935093505b92959194509250565b600080600090505b600180549050811015611e755782604051602001611dcd9190613671565b6040516020818303038152906040528051906020012060018281548110611df757611df6613688565b5b9060005260206000209060060201600101604051602001611e1891906137ac565b604051602081830303815290604052805190602001201415611e625760018181548110611e4857611e47613688565b5b906000526020600020906006020160050154915050611e7b565b8080611e6d906137f2565b915050611daf565b50600090505b919050565b60005b600180549050811015611f565782604051602001611ea19190613671565b6040516020818303038152906040528051906020012060018281548110611ecb57611eca613688565b5b9060005260206000209060060201600101604051602001611eec91906137ac565b604051602081830303815290604052805190602001201415611f43576040517f08c379a0000000000000000000000000000000000000000000000000000000008152600401611f3a90613949565b60405180910390fd5b8080611f4e906137f2565b915050611e83565b5060016040518060c001604052808581526020018481526020018381526020013373ffffffffffffffffffffffffffffffffffffffff168152602001600067ffffffffffffffff811115611fad57611fac612cba565b5b604051908082528060200260200182016040528015611fe057816020015b6060815260200190600190039081611fcb5790505b508152602001600081525090806001815401808255809150506001900390600052602060002090600602016000909190919091506000820151816000019080519060200190612030929190612adf565b50602082015181600101908051906020019061204d929190612adf565b50604082015181600201908051906020019061206a929190612adf565b5060608201518160030160006101000a81548173ffffffffffffffffffffffffffffffffffffffff021916908373ffffffffffffffffffffffffffffffffffffffff16021790555060808201518160040190805190602001906120ce929190612b65565b5060a082015181600501555050505050565b6060806000606060005b60008054905081101561243057856040516020016121089190613671565b604051602081830303815290604052805190602001206000828154811061213257612131613688565b5b906000526020600020906005020160000160405160200161215391906137ac565b60405160208183030381529060405280519060200120141561241d576000818154811061218357612182613688565b5b9060005260206000209060050201600001600082815481106121a8576121a7613688565b5b9060005260206000209060050201600101600083815481106121cd576121cc613688565b5b906000526020600020906005020160030160009054906101000a900473ffffffffffffffffffffffffffffffffffffffff166000848154811061221357612212613688565b5b9060005260206000209060050201600401838054612230906136e6565b80601f016020809104026020016040519081016040528092919081815260200182805461225c906136e6565b80156122a95780601f1061227e576101008083540402835291602001916122a9565b820191906000526020600020905b81548152906001019060200180831161228c57829003601f168201915b505050505093508280546122bc906136e6565b80601f01602080910402602001604051908101604052809291908181526020018280546122e8906136e6565b80156123355780601f1061230a57610100808354040283529160200191612335565b820191906000526020600020905b81548152906001019060200180831161231857829003601f168201915b5050505050925080805480602002602001604051908101604052809291908181526020016000905b8282101561240957838290600052602060002001805461237c906136e6565b80601f01602080910402602001604051908101604052809291908181526020018280546123a8906136e6565b80156123f55780601f106123ca576101008083540402835291602001916123f5565b820191906000526020600020905b8154815290600101906020018083116123d857829003601f168201915b50505050508152602001906001019061235d565b5050505090509450945094509450506124ae565b8080612428906137f2565b9150506120ea565b5060008067ffffffffffffffff81111561244d5761244c612cba565b5b60405190808252806020026020018201604052801561248057816020015b606081526020019060019003908161246b5790505b5060405180602001604052806000815250919060405180602001604052806000815250919093509350935093505b9193509193565b606060005b600180549050811015612a3057826040516020016124d89190613671565b604051602081830303815290604052805190602001206001828154811061250257612501613688565b5b906000526020600020906006020160010160405160200161252391906137ac565b604051602081830303815290604052805190602001201415612a1d5760006001828154811061255557612554613688565b5b90600052602060002090600602016004018054905067ffffffffffffffff81111561258357612582612cba565b5b6040519080825280602002602001820160405280156125bc57816020015b6125a9612bc5565b8152602001906001900390816125a15790505b50905060005b600183815481106125d6576125d5613688565b5b906000526020600020906006020160040180549050811015612a125760005b6000805490508110156129fe576001848154811061261657612615613688565b5b9060005260206000209060060201600401828154811061263957612638613688565b5b9060005260206000200160405160200161265391906137ac565b604051602081830303815290604052805190602001206000828154811061267d5761267c613688565b5b906000526020600020906005020160000160405160200161269e91906137ac565b6040516020818303038152906040528051906020012014156129eb57600081815481106126ce576126cd613688565b5b90600052602060002090600502016040518060a00160405290816000820180546126f7906136e6565b80601f0160208091040260200160405190810160405280929190818152602001828054612723906136e6565b80156127705780601f1061274557610100808354040283529160200191612770565b820191906000526020600020905b81548152906001019060200180831161275357829003601f168201915b50505050508152602001600182018054612789906136e6565b80601f01602080910402602001604051908101604052809291908181526020018280546127b5906136e6565b80156128025780601f106127d757610100808354040283529160200191612802565b820191906000526020600020905b8154815290600101906020018083116127e557829003601f168201915b5050505050815260200160028201805461281b906136e6565b80601f0160208091040260200160405190810160405280929190818152602001828054612847906136e6565b80156128945780601f1061286957610100808354040283529160200191612894565b820191906000526020600020905b81548152906001019060200180831161287757829003601f168201915b505050505081526020016003820160009054906101000a900473ffffffffffffffffffffffffffffffffffffffff1673ffffffffffffffffffffffffffffffffffffffff1673ffffffffffffffffffffffffffffffffffffffff16815260200160048201805480602002602001604051908101604052809291908181526020016000905b828210156129c4578382906000526020600020018054612937906136e6565b80601f0160208091040260200160405190810160405280929190818152602001828054612963906136e6565b80156129b05780601f10612985576101008083540402835291602001916129b0565b820191906000526020600020905b81548152906001019060200180831161299357829003601f168201915b505050505081526020019060010190612918565b50505050815250508383815181106129df576129de613688565b5b60200260200101819052505b80806129f6906137f2565b9150506125f5565b508080612a0a906137f2565b9150506125c2565b508092505050612a8e565b8080612a28906137f2565b9150506124ba565b5060008067ffffffffffffffff811115612a4d57612a4c612cba565b5b604051908082528060200260200182016040528015612a8657816020015b612a73612bc5565b815260200190600190039081612a6b5790505b509050809150505b919050565b6040518060c00160405280606081526020016060815260200160608152602001600073ffffffffffffffffffffffffffffffffffffffff16815260200160608152602001600081525090565b828054612aeb906136e6565b90600052602060002090601f016020900481019282612b0d5760008555612b54565b82601f10612b2657805160ff1916838001178555612b54565b82800160010185558215612b54579182015b82811115612b53578251825591602001919060010190612b38565b5b509050612b619190612c0a565b5090565b828054828255906000526020600020908101928215612bb4579160200282015b82811115612bb3578251829080519060200190612ba3929190612adf565b5091602001919060010190612b85565b5b509050612bc19190612c27565b5090565b6040518060a00160405280606081526020016060815260200160608152602001600073ffffffffffffffffffffffffffffffffffffffff168152602001606081525090565b5b80821115612c23576000816000905550600101612c0b565b5090565b5b80821115612c475760008181612c3e9190612c4b565b50600101612c28565b5090565b508054612c57906136e6565b6000825580601f10612c695750612c88565b601f016020900490600052602060002090810190612c879190612c0a565b5b50565b6000604051905090565b600080fd5b600080fd5b600080fd5b600080fd5b6000601f19601f8301169050919050565b7f4e487b7100000000000000000000000000000000000000000000000000000000600052604160045260246000fd5b612cf282612ca9565b810181811067ffffffffffffffff82111715612d1157612d10612cba565b5b80604052505050565b6000612d24612c8b565b9050612d308282612ce9565b919050565b600067ffffffffffffffff821115612d5057612d4f612cba565b5b612d5982612ca9565b9050602081019050919050565b82818337600083830152505050565b6000612d88612d8384612d35565b612d1a565b905082815260208101848484011115612da457612da3612ca4565b5b612daf848285612d66565b509392505050565b600082601f830112612dcc57612dcb612c9f565b5b8135612ddc848260208601612d75565b91505092915050565b600060208284031215612dfb57612dfa612c95565b5b600082013567ffffffffffffffff811115612e1957612e18612c9a565b5b612e2584828501612db7565b91505092915050565b600081519050919050565b600082825260208201905092915050565b60005b83811015612e68578082015181840152602081019050612e4d565b83811115612e77576000848401525b50505050565b6000612e8882612e2e565b612e928185612e39565b9350612ea2818560208601612e4a565b612eab81612ca9565b840191505092915050565b600073ffffffffffffffffffffffffffffffffffffffff82169050919050565b6000612ee182612eb6565b9050919050565b612ef181612ed6565b82525050565b600081519050919050565b600082825260208201905092915050565b6000819050602082019050919050565b600082825260208201905092915050565b6000612f3f82612e2e565b612f498185612f23565b9350612f59818560208601612e4a565b612f6281612ca9565b840191505092915050565b6000612f798383612f34565b905092915050565b6000602082019050919050565b6000612f9982612ef7565b612fa38185612f02565b935083602082028501612fb585612f13565b8060005b85811015612ff15784840389528151612fd28582612f6d565b9450612fdd83612f81565b925060208a01995050600181019050612fb9565b50829750879550505050505092915050565b6000819050919050565b61301681613003565b82525050565b600060a08201905081810360008301526130368188612e7d565b9050818103602083015261304a8187612e7d565b90506130596040830186612ee8565b818103606083015261306b8185612f8e565b905061307a608083018461300d565b9695505050505050565b600081519050919050565b600082825260208201905092915050565b6000819050602082019050919050565b6130b981612ed6565b82525050565b600082825260208201905092915050565b60006130db82612ef7565b6130e581856130bf565b9350836020820285016130f785612f13565b8060005b8581101561313357848403895281516131148582612f6d565b945061311f83612f81565b925060208a019950506001810190506130fb565b50829750879550505050505092915050565b61314e81613003565b82525050565b600060c08301600083015184820360008601526131718282612f34565b9150506020830151848203602086015261318b8282612f34565b915050604083015184820360408601526131a58282612f34565b91505060608301516131ba60608601826130b0565b50608083015184820360808601526131d282826130d0565b91505060a08301516131e760a0860182613145565b508091505092915050565b60006131fe8383613154565b905092915050565b6000602082019050919050565b600061321e82613084565b613228818561308f565b93508360208202850161323a856130a0565b8060005b85811015613276578484038952815161325785826131f2565b945061326283613206565b925060208a0199505060018101905061323e565b50829750879550505050505092915050565b600060208201905081810360008301526132a28184613213565b905092915050565b6000806000606084860312156132c3576132c2612c95565b5b600084013567ffffffffffffffff8111156132e1576132e0612c9a565b5b6132ed86828701612db7565b935050602084013567ffffffffffffffff81111561330e5761330d612c9a565b5b61331a86828701612db7565b925050604084013567ffffffffffffffff81111561333b5761333a612c9a565b5b61334786828701612db7565b9150509250925092565b6000806040838503121561336857613367612c95565b5b600083013567ffffffffffffffff81111561338657613385612c9a565b5b61339285828601612db7565b925050602083013567ffffffffffffffff8111156133b3576133b2612c9a565b5b6133bf85828601612db7565b9150509250929050565b6133d281613003565b81146133dd57600080fd5b50565b6000813590506133ef816133c9565b92915050565b6000806040838503121561340c5761340b612c95565b5b600083013567ffffffffffffffff81111561342a57613429612c9a565b5b61343685828601612db7565b9250506020613447858286016133e0565b9150509250929050565b600081519050919050565b600082825260208201905092915050565b6000819050602082019050919050565b600060a083016000830151848203600086015261349a8282612f34565b915050602083015184820360208601526134b48282612f34565b915050604083015184820360408601526134ce8282612f34565b91505060608301516134e360608601826130b0565b50608083015184820360808601526134fb82826130d0565b9150508091505092915050565b6000613514838361347d565b905092915050565b6000602082019050919050565b600061353482613451565b61353e818561345c565b9350836020820285016135508561346d565b8060005b8581101561358c578484038952815161356d8582613508565b94506135788361351c565b925060208a01995050600181019050613554565b50829750879550505050505092915050565b600060208201905081810360008301526135b88184613529565b905092915050565b600060808201905081810360008301526135da8187612e7d565b905081810360208301526135ee8186612e7d565b90506135fd6040830185612ee8565b818103606083015261360f8184612f8e565b905095945050505050565b600060208201905061362f600083018461300d565b92915050565b600081905092915050565b600061364b82612e2e565b6136558185613635565b9350613665818560208601612e4a565b80840191505092915050565b600061367d8284613640565b915081905092915050565b7f4e487b7100000000000000000000000000000000000000000000000000000000600052603260045260246000fd5b7f4e487b7100000000000000000000000000000000000000000000000000000000600052602260045260246000fd5b600060028204905060018216806136fe57607f821691505b60208210811415613712576137116136b7565b5b50919050565b60008190508160005260206000209050919050565b6000815461373a816136e6565b6137448186613635565b9450600182166000811461375f5760018114613770576137a3565b60ff198316865281860193506137a3565b61377985613718565b60005b8381101561379b5781548189015260018201915060208101905061377c565b838801955050505b50505092915050565b60006137b8828461372d565b915081905092915050565b7f4e487b7100000000000000000000000000000000000000000000000000000000600052601160045260246000fd5b60006137fd82613003565b91507fffffffffffffffffffffffffffffffffffffffffffffffffffffffffffffffff8214156138305761382f6137c3565b5b600182019050919050565b7f556e697665727369747920616c72656164792065786973747300000000000000600082015250565b6000613871601983612e39565b915061387c8261383b565b602082019050919050565b600060208201905081810360008301526138a081613864565b9050919050565b60006138b282613003565b91506138bd83613003565b9250827fffffffffffffffffffffffffffffffffffffffffffffffffffffffffffffffff038211156138f2576138f16137c3565b5b828201905092915050565b7f53747564656e7420616c72656164792065786973747300000000000000000000600082015250565b6000613933601683612e39565b915061393e826138fd565b602082019050919050565b6000602082019050818103600083015261396281613926565b905091905056fea264697066735822122036bd23c8bf2e9558436c8991baf35d2e9a342536b92c6283d8d9f0d64012e98264736f6c63430008090033",
  "linkReferences": {},
  "deployedLinkReferences": {}
}