{
  "_format": "hh-sol-artifact-1",
  "contractName": "InstituteandStudent",
  "sourceName": "contracts/InstituteandStudent.sol",
  "abi": [
    {
      "inputs": [
        {
          "internalType": "string",
          "name": "_name",
          "type": "string"
        },
        {
          "internalType": "string",
          "name": "_uid",
          "type": "string"
        },
        {
          "internalType": "string",
          "name": "_password",
          "type": "string"
        }
      ],
      "name": "addStudent",
      "outputs": [],
      "stateMutability": "nonpayable",
      "type": "function"
    },
    {
      "inputs": [
        {
          "internalType": "string",
          "name": "_uid",
          "type": "string"
        },
        {
          "internalType": "uint256",
          "name": "_credits",
          "type": "uint256"
        }
      ],
      "name": "addStudentCredit",
      "outputs": [],
      "stateMutability": "nonpayable",
      "type": "function"
    },
    {
      "inputs": [
        {
          "internalType": "string",
          "name": "_name",
          "type": "string"
        },
        {
          "internalType": "string",
          "name": "_code",
          "type": "string"
        },
        {
          "internalType": "string",
          "name": "_password",
          "type": "string"
        }
      ],
      "name": "addUniversity",
      "outputs": [],
      "stateMutability": "nonpayable",
      "type": "function"
    },
    {
      "inputs": [
        {
          "internalType": "string",
          "name": "_uid",
          "type": "string"
        },
        {
          "internalType": "string",
          "name": "_code",
          "type": "string"
        }
      ],
      "name": "enrollStudent",
      "outputs": [],
      "stateMutability": "nonpayable",
      "type": "function"
    },
    {
      "inputs": [],
      "name": "getAllInstitutes",
      "outputs": [
        {
          "components": [
            {
              "internalType": "string",
              "name": "code",
              "type": "string"
            },
            {
              "internalType": "string",
              "name": "name",
              "type": "string"
            },
            {
              "internalType": "string",
              "name": "password",
              "type": "string"
            },
            {
              "internalType": "address",
              "name": "walletAddress",
              "type": "address"
            },
            {
              "internalType": "string[]",
              "name": "studentUIDs",
              "type": "string[]"
            }
          ],
          "internalType": "struct InstituteandStudent.Institutes[]",
          "name": "",
          "type": "tuple[]"
        }
      ],
      "stateMutability": "view",
      "type": "function"
    },
    {
      "inputs": [
        {
          "internalType": "string",
          "name": "_studentUID",
          "type": "string"
        },
        {
          "internalType": "string",
          "name": "_instituteCode",
          "type": "string"
        }
      ],
      "name": "getInsituteApproval",
      "outputs": [],
      "stateMutability": "nonpayable",
      "type": "function"
    },
    {
      "inputs": [
        {
          "internalType": "string",
          "name": "_studentUID",
          "type": "string"
        }
      ],
      "name": "getNADApproval",
      "outputs": [],
      "stateMutability": "nonpayable",
      "type": "function"
    },
    {
      "inputs": [
        {
          "internalType": "string",
          "name": "_instituteCode",
          "type": "string"
        }
      ],
      "name": "getRequestbyinstitueID",
      "outputs": [
        {
          "components": [
            {
              "internalType": "string",
              "name": "studentUID",
              "type": "string"
            },
            {
              "internalType": "string",
              "name": "instituteCode",
              "type": "string"
            },
            {
              "internalType": "string",
              "name": "otherinstituteCode",
              "type": "string"
            },
            {
              "internalType": "uint256",
              "name": "credits",
              "type": "uint256"
            },
            {
              "internalType": "bool",
              "name": "hasStudentApproved",
              "type": "bool"
            },
            {
              "internalType": "bool",
              "name": "hasCollegeApproved",
              "type": "bool"
            },
            {
              "internalType": "bool",
              "name": "hasNADApproved",
              "type": "bool"
            }
          ],
          "internalType": "struct InstituteandStudent.TransferRequest[]",
          "name": "",
          "type": "tuple[]"
        }
      ],
      "stateMutability": "view",
      "type": "function"
    },
    {
      "inputs": [
        {
          "internalType": "string",
          "name": "_uid",
          "type": "string"
        }
      ],
      "name": "getStudentCredit",
      "outputs": [
        {
          "internalType": "uint256",
          "name": "",
          "type": "uint256"
        }
      ],
      "stateMutability": "view",
      "type": "function"
    },
    {
      "inputs": [
        {
          "internalType": "string",
          "name": "_studentUID",
          "type": "string"
        }
      ],
      "name": "getStudentCredits",
      "outputs": [
        {
          "internalType": "uint256",
          "name": "",
          "type": "uint256"
        }
      ],
      "stateMutability": "view",
      "type": "function"
    },
    {
      "inputs": [
        {
          "internalType": "string",
          "name": "_uid",
          "type": "string"
        }
      ],
      "name": "getStudentInfo",
      "outputs": [
        {
          "internalType": "string",
          "name": "",
          "type": "string"
        },
        {
          "internalType": "string",
          "name": "",
          "type": "string"
        },
        {
          "internalType": "address",
          "name": "",
          "type": "address"
        },
        {
          "internalType": "string[]",
          "name": "",
          "type": "string[]"
        },
        {
          "internalType": "uint256",
          "name": "",
          "type": "uint256"
        }
      ],
      "stateMutability": "view",
      "type": "function"
    },
    {
      "inputs": [
        {
          "internalType": "string",
          "name": "_code",
          "type": "string"
        }
      ],
      "name": "getStudentsinUniversity",
      "outputs": [
        {
          "components": [
            {
              "internalType": "string",
              "name": "name",
              "type": "string"
            },
            {
              "internalType": "string",
              "name": "uid",
              "type": "string"
            },
            {
              "internalType": "string",
              "name": "password",
              "type": "string"
            },
            {
              "internalType": "address",
              "name": "walletAddress",
              "type": "address"
            },
            {
              "internalType": "string[]",
              "name": "instituteCode",
              "type": "string[]"
            },
            {
              "internalType": "uint256",
              "name": "credits",
              "type": "uint256"
            }
          ],
          "internalType": "struct InstituteandStudent.Student[]",
          "name": "",
          "type": "tuple[]"
        }
      ],
      "stateMutability": "view",
      "type": "function"
    },
    {
      "inputs": [],
      "name": "getTransferReqeuests",
      "outputs": [
        {
          "components": [
            {
              "internalType": "string",
              "name": "studentUID",
              "type": "string"
            },
            {
              "internalType": "string",
              "name": "instituteCode",
              "type": "string"
            },
            {
              "internalType": "string",
              "name": "otherinstituteCode",
              "type": "string"
            },
            {
              "internalType": "uint256",
              "name": "credits",
              "type": "uint256"
            },
            {
              "internalType": "bool",
              "name": "hasStudentApproved",
              "type": "bool"
            },
            {
              "internalType": "bool",
              "name": "hasCollegeApproved",
              "type": "bool"
            },
            {
              "internalType": "bool",
              "name": "hasNADApproved",
              "type": "bool"
            }
          ],
          "internalType": "struct InstituteandStudent.TransferRequest[]",
          "name": "",
          "type": "tuple[]"
        }
      ],
      "stateMutability": "view",
      "type": "function"
    },
    {
      "inputs": [
        {
          "internalType": "string",
          "name": "_code",
          "type": "string"
        }
      ],
      "name": "getUniversity",
      "outputs": [
        {
          "internalType": "string",
          "name": "",
          "type": "string"
        },
        {
          "internalType": "string",
          "name": "",
          "type": "string"
        },
        {
          "internalType": "address",
          "name": "",
          "type": "address"
        },
        {
          "internalType": "string[]",
          "name": "",
          "type": "string[]"
        }
      ],
      "stateMutability": "view",
      "type": "function"
    },
    {
      "inputs": [
        {
          "internalType": "string",
          "name": "_uid",
          "type": "string"
        }
      ],
      "name": "getUniversityinStudent",
      "outputs": [
        {
          "components": [
            {
              "internalType": "string",
              "name": "code",
              "type": "string"
            },
            {
              "internalType": "string",
              "name": "name",
              "type": "string"
            },
            {
              "internalType": "string",
              "name": "password",
              "type": "string"
            },
            {
              "internalType": "address",
              "name": "walletAddress",
              "type": "address"
            },
            {
              "internalType": "string[]",
              "name": "studentUIDs",
              "type": "string[]"
            }
          ],
          "internalType": "struct InstituteandStudent.Institutes[]",
          "name": "",
          "type": "tuple[]"
        }
      ],
      "stateMutability": "view",
      "type": "function"
    },
    {
      "inputs": [
        {
          "internalType": "string",
          "name": "_uid",
          "type": "string"
        },
        {
          "internalType": "string",
          "name": "_password",
          "type": "string"
        }
      ],
      "name": "loginStudent",
      "outputs": [
        {
          "internalType": "string",
          "name": "",
          "type": "string"
        },
        {
          "internalType": "string",
          "name": "",
          "type": "string"
        },
        {
          "internalType": "address",
          "name": "",
          "type": "address"
        },
        {
          "internalType": "string[]",
          "name": "",
          "type": "string[]"
        }
      ],
      "stateMutability": "view",
      "type": "function"
    },
    {
      "inputs": [
        {
          "internalType": "string",
          "name": "_code",
          "type": "string"
        },
        {
          "internalType": "string",
          "name": "_password",
          "type": "string"
        }
      ],
      "name": "loginUniversity",
      "outputs": [
        {
          "internalType": "string",
          "name": "",
          "type": "string"
        },
        {
          "internalType": "string",
          "name": "",
          "type": "string"
        },
        {
          "internalType": "address",
          "name": "",
          "type": "address"
        },
        {
          "internalType": "string[]",
          "name": "",
          "type": "string[]"
        }
      ],
      "stateMutability": "view",
      "type": "function"
    },
    {
      "inputs": [
        {
          "internalType": "string",
          "name": "_studentUID",
          "type": "string"
        },
        {
          "internalType": "string",
          "name": "_instituteCode",
          "type": "string"
        },
        {
          "internalType": "string",
          "name": "_otherinstituteCode",
          "type": "string"
        },
        {
          "internalType": "uint256",
          "name": "_credits",
          "type": "uint256"
        }
      ],
      "name": "sendTransferRequest",
      "outputs": [],
      "stateMutability": "nonpayable",
      "type": "function"
    },
    {
      "inputs": [
        {
          "internalType": "string",
          "name": "_studentUID",
          "type": "string"
        }
      ],
      "name": "transferCredits",
      "outputs": [],
      "stateMutability": "nonpayable",
      "type": "function"
    }
  ],
  "bytecode": "0x608060405234801561001057600080fd5b50614a17806100206000396000f3fe608060405234801561001057600080fd5b50600436106101215760003560e01c80636c342b60116100ad578063aa518b9011610071578063aa518b9014610334578063d2d7120614610350578063d75162c51461036c578063e221ca381461039f578063edd2cda3146103cf57610121565b80636c342b6014610252578063890cfd3d146102855780639b968ced146102b8578063a14958f4146102e8578063a718fbcb1461030457610121565b806330b37026116100f457806330b37026146101c25780634bf0c2b3146101de5780635c74d7a6146101fa57806362026bb4146102165780636383838d1461023457610121565b80630a3da645146101265780630a739dc4146101425780630e9fc6d114610176578063234d68fa146101a6575b600080fd5b610140600480360381019061013b9190613bc5565b6103ff565b005b61015c60048036038101906101579190613bc5565b61061f565b60405161016d959493929190613dfc565b60405180910390f35b610190600480360381019061018b9190613bc5565b610a29565b60405161019d9190614068565b60405180910390f35b6101c060048036038101906101bb91906140b6565b611010565b005b6101dc60048036038101906101d79190614171565b611140565b005b6101f860048036038101906101f39190614218565b61138f565b005b610214600480360381019061020f9190614290565b61158b565b005b61021e61166e565b60405161022b9190614473565b60405180910390f35b61023c6118de565b60405161024991906145e2565b60405180910390f35b61026c60048036038101906102679190614218565b611c22565b60405161027c9493929190614604565b60405180910390f35b61029f600480360381019061029a9190614218565b612072565b6040516102af9493929190614604565b60405180910390f35b6102d260048036038101906102cd9190613bc5565b6124c2565b6040516102df919061465e565b60405180910390f35b61030260048036038101906102fd9190614218565b61259b565b005b61031e60048036038101906103199190613bc5565b6126f5565b60405161032b919061465e565b60405180910390f35b61034e60048036038101906103499190614171565b6127ce565b005b61036a60048036038101906103659190613bc5565b612a2e565b005b61038660048036038101906103819190613bc5565b612b0c565b6040516103969493929190614604565b60405180910390f35b6103b960048036038101906103b49190613bc5565b612ee1565b6040516103c69190614473565b60405180910390f35b6103e960048036038101906103e49190613bc5565b613252565b6040516103f691906145e2565b60405180910390f35b60005b60028054905081101561061b578160405160200161042091906146b5565b604051602081830303815290604052805190602001206002828154811061044a576104496146cc565b5b906000526020600020906005020160000160405160200161046b91906147f0565b60405160208183030381529060405280519060200120141561060857600115156002828154811061049f5761049e6146cc565b5b906000526020600020906005020160040160019054906101000a900460ff161515148015610503575060011515600282815481106104e0576104df6146cc565b5b906000526020600020906005020160040160029054906101000a900460ff161515145b156106075760005b600180549050811015610605578260405160200161052991906146b5565b6040516020818303038152906040528051906020012060018281548110610553576105526146cc565b5b906000526020600020906006020160010160405160200161057491906147f0565b6040516020818303038152906040528051906020012014156105f257600282815481106105a4576105a36146cc565b5b906000526020600020906005020160030154600182815481106105ca576105c96146cc565b5b906000526020600020906006020160050160008282546105ea9190614836565b925050819055505b80806105fd9061486a565b91505061050b565b505b5b80806106139061486a565b915050610402565b5050565b60608060006060600080600090505b60018054905081101561099c578660405160200161064c91906146b5565b6040516020818303038152906040528051906020012060018281548110610676576106756146cc565b5b906000526020600020906006020160010160405160200161069791906147f0565b60405160208183030381529060405280519060200120141561098957600181815481106106c7576106c66146cc565b5b9060005260206000209060060201600001600182815481106106ec576106eb6146cc565b5b906000526020600020906006020160020160018381548110610711576107106146cc565b5b906000526020600020906006020160030160009054906101000a900473ffffffffffffffffffffffffffffffffffffffff1660018481548110610757576107566146cc565b5b90600052602060002090600602016004016001858154811061077c5761077b6146cc565b5b90600052602060002090600602016005015484805461079a9061472a565b80601f01602080910402602001604051908101604052809291908181526020018280546107c69061472a565b80156108135780601f106107e857610100808354040283529160200191610813565b820191906000526020600020905b8154815290600101906020018083116107f657829003601f168201915b505050505094508380546108269061472a565b80601f01602080910402602001604051908101604052809291908181526020018280546108529061472a565b801561089f5780601f106108745761010080835404028352916020019161089f565b820191906000526020600020905b81548152906001019060200180831161088257829003601f168201915b5050505050935081805480602002602001604051908101604052809291908181526020016000905b828210156109735783829060005260206000200180546108e69061472a565b80601f01602080910402602001604051908101604052809291908181526020018280546109129061472a565b801561095f5780601f106109345761010080835404028352916020019161095f565b820191906000526020600020905b81548152906001019060200180831161094257829003601f168201915b5050505050815260200190600101906108c7565b5050505091509550955095509550955050610a20565b80806109949061486a565b91505061062e565b5060008067ffffffffffffffff8111156109b9576109b8613a9a565b5b6040519080825280602002602001820160405280156109ec57816020015b60608152602001906001900390816109d75790505b5060006040518060200160405280600081525092919060405180602001604052806000815250929190945094509450945094505b91939590929450565b606060005b600080549050811015610fad5782604051602001610a4c91906146b5565b6040516020818303038152906040528051906020012060008281548110610a7657610a756146cc565b5b9060005260206000209060050201600001604051602001610a9791906147f0565b604051602081830303815290604052805190602001201415610f9a576000808281548110610ac857610ac76146cc565b5b90600052602060002090600502016004018054905067ffffffffffffffff811115610af657610af5613a9a565b5b604051908082528060200260200182016040528015610b2f57816020015b610b1c613830565b815260200190600190039081610b145790505b50905060005b60008381548110610b4957610b486146cc565b5b906000526020600020906005020160040180549050811015610f8f5760005b600180549050811015610f7b5760008481548110610b8957610b886146cc565b5b90600052602060002090600502016004018281548110610bac57610bab6146cc565b5b90600052602060002001604051602001610bc691906147f0565b6040516020818303038152906040528051906020012060018281548110610bf057610bef6146cc565b5b9060005260206000209060060201600101604051602001610c1191906147f0565b604051602081830303815290604052805190602001201415610f685760018181548110610c4157610c406146cc565b5b90600052602060002090600602016040518060c0016040529081600082018054610c6a9061472a565b80601f0160208091040260200160405190810160405280929190818152602001828054610c969061472a565b8015610ce35780601f10610cb857610100808354040283529160200191610ce3565b820191906000526020600020905b815481529060010190602001808311610cc657829003601f168201915b50505050508152602001600182018054610cfc9061472a565b80601f0160208091040260200160405190810160405280929190818152602001828054610d289061472a565b8015610d755780601f10610d4a57610100808354040283529160200191610d75565b820191906000526020600020905b815481529060010190602001808311610d5857829003601f168201915b50505050508152602001600282018054610d8e9061472a565b80601f0160208091040260200160405190810160405280929190818152602001828054610dba9061472a565b8015610e075780601f10610ddc57610100808354040283529160200191610e07565b820191906000526020600020905b815481529060010190602001808311610dea57829003601f168201915b505050505081526020016003820160009054906101000a900473ffffffffffffffffffffffffffffffffffffffff1673ffffffffffffffffffffffffffffffffffffffff1673ffffffffffffffffffffffffffffffffffffffff16815260200160048201805480602002602001604051908101604052809291908181526020016000905b82821015610f37578382906000526020600020018054610eaa9061472a565b80601f0160208091040260200160405190810160405280929190818152602001828054610ed69061472a565b8015610f235780601f10610ef857610100808354040283529160200191610f23565b820191906000526020600020905b815481529060010190602001808311610f0657829003601f168201915b505050505081526020019060010190610e8b565b505050508152602001600582015481525050838381518110610f5c57610f5b6146cc565b5b60200260200101819052505b8080610f739061486a565b915050610b68565b508080610f879061486a565b915050610b35565b50809250505061100b565b8080610fa59061486a565b915050610a2e565b5060008067ffffffffffffffff811115610fca57610fc9613a9a565b5b60405190808252806020026020018201604052801561100357816020015b610ff0613830565b815260200190600190039081610fe85790505b509050809150505b919050565b60026040518060e00160405280868152602001858152602001848152602001838152602001600115158152602001600015158152602001600015158152509080600181540180825580915050600190039060005260206000209060050201600090919091909150600082015181600001908051906020019061109392919061387c565b5060208201518160010190805190602001906110b092919061387c565b5060408201518160020190805190602001906110cd92919061387c565b506060820151816003015560808201518160040160006101000a81548160ff02191690831515021790555060a08201518160040160016101000a81548160ff02191690831515021790555060c08201518160040160026101000a81548160ff021916908315150217905550505050505050565b60005b600080549050811015611216578260405160200161116191906146b5565b604051602081830303815290604052805190602001206000828154811061118b5761118a6146cc565b5b90600052602060002090600502016000016040516020016111ac91906147f0565b604051602081830303815290604052805190602001201415611203576040517f08c379a00000000000000000000000000000000000000000000000000000000081526004016111fa906148ff565b60405180910390fd5b808061120e9061486a565b915050611143565b5060006040518060a001604052808481526020018581526020018381526020013373ffffffffffffffffffffffffffffffffffffffff168152602001600067ffffffffffffffff81111561126d5761126c613a9a565b5b6040519080825280602002602001820160405280156112a057816020015b606081526020019060019003908161128b5790505b50815250908060018154018082558091505060019003906000526020600020906005020160009091909190915060008201518160000190805190602001906112e992919061387c565b50602082015181600101908051906020019061130692919061387c565b50604082015181600201908051906020019061132392919061387c565b5060608201518160030160006101000a81548173ffffffffffffffffffffffffffffffffffffffff021916908373ffffffffffffffffffffffffffffffffffffffff1602179055506080820151816004019080519060200190611387929190613902565b505050505050565b60005b60008054905081101561148a57816040516020016113b091906146b5565b60405160208183030381529060405280519060200120600082815481106113da576113d96146cc565b5b90600052602060002090600502016000016040516020016113fb91906147f0565b604051602081830303815290604052805190602001201415611477576000818154811061142b5761142a6146cc565b5b90600052602060002090600502016004018390806001815401808255809150506001900390600052602060002001600090919091909150908051906020019061147592919061387c565b505b80806114829061486a565b915050611392565b5060005b60018054905081101561158657826040516020016114ac91906146b5565b60405160208183030381529060405280519060200120600182815481106114d6576114d56146cc565b5b90600052602060002090600602016001016040516020016114f791906147f0565b6040516020818303038152906040528051906020012014156115735760018181548110611527576115266146cc565b5b90600052602060002090600602016004018290806001815401808255809150506001900390600052602060002001600090919091909150908051906020019061157192919061387c565b505b808061157e9061486a565b91505061148e565b505050565b60005b60018054905081101561166857826040516020016115ac91906146b5565b60405160208183030381529060405280519060200120600182815481106115d6576115d56146cc565b5b90600052602060002090600602016001016040516020016115f791906147f0565b604051602081830303815290604052805190602001201415611655578160018281548110611628576116276146cc565b5b90600052602060002090600602016005016000828254611648919061491f565b925050819055505061166a565b80806116609061486a565b91505061158e565b505b5050565b60606002805480602002602001604051908101604052809291908181526020016000905b828210156118d557838290600052602060002090600502016040518060e00160405290816000820180546116c59061472a565b80601f01602080910402602001604051908101604052809291908181526020018280546116f19061472a565b801561173e5780601f106117135761010080835404028352916020019161173e565b820191906000526020600020905b81548152906001019060200180831161172157829003601f168201915b505050505081526020016001820180546117579061472a565b80601f01602080910402602001604051908101604052809291908181526020018280546117839061472a565b80156117d05780601f106117a5576101008083540402835291602001916117d0565b820191906000526020600020905b8154815290600101906020018083116117b357829003601f168201915b505050505081526020016002820180546117e99061472a565b80601f01602080910402602001604051908101604052809291908181526020018280546118159061472a565b80156118625780601f1061183757610100808354040283529160200191611862565b820191906000526020600020905b81548152906001019060200180831161184557829003601f168201915b50505050508152602001600382015481526020016004820160009054906101000a900460ff161515151581526020016004820160019054906101000a900460ff161515151581526020016004820160029054906101000a900460ff16151515158152505081526020019060010190611692565b50505050905090565b60606000805480602002602001604051908101604052809291908181526020016000905b82821015611c1957838290600052602060002090600502016040518060a00160405290816000820180546119359061472a565b80601f01602080910402602001604051908101604052809291908181526020018280546119619061472a565b80156119ae5780601f10611983576101008083540402835291602001916119ae565b820191906000526020600020905b81548152906001019060200180831161199157829003601f168201915b505050505081526020016001820180546119c79061472a565b80601f01602080910402602001604051908101604052809291908181526020018280546119f39061472a565b8015611a405780601f10611a1557610100808354040283529160200191611a40565b820191906000526020600020905b815481529060010190602001808311611a2357829003601f168201915b50505050508152602001600282018054611a599061472a565b80601f0160208091040260200160405190810160405280929190818152602001828054611a859061472a565b8015611ad25780601f10611aa757610100808354040283529160200191611ad2565b820191906000526020600020905b815481529060010190602001808311611ab557829003601f168201915b505050505081526020016003820160009054906101000a900473ffffffffffffffffffffffffffffffffffffffff1673ffffffffffffffffffffffffffffffffffffffff1673ffffffffffffffffffffffffffffffffffffffff16815260200160048201805480602002602001604051908101604052809291908181526020016000905b82821015611c02578382906000526020600020018054611b759061472a565b80601f0160208091040260200160405190810160405280929190818152602001828054611ba19061472a565b8015611bee5780601f10611bc357610100808354040283529160200191611bee565b820191906000526020600020905b815481529060010190602001808311611bd157829003601f168201915b505050505081526020019060010190611b56565b505050508152505081526020019060010190611902565b50505050905090565b6060806000606060005b600080549050811015611feb5786604051602001611c4a91906146b5565b6040516020818303038152906040528051906020012060008281548110611c7457611c736146cc565b5b9060005260206000209060050201600001604051602001611c9591906147f0565b604051602081830303815290604052805190602001201415611fd85785604051602001611cc291906146b5565b6040516020818303038152906040528051906020012060008281548110611cec57611ceb6146cc565b5b9060005260206000209060050201600201604051602001611d0d91906147f0565b604051602081830303815290604052805190602001201415611fd75760008181548110611d3d57611d3c6146cc565b5b906000526020600020906005020160000160008281548110611d6257611d616146cc565b5b906000526020600020906005020160010160008381548110611d8757611d866146cc565b5b906000526020600020906005020160030160009054906101000a900473ffffffffffffffffffffffffffffffffffffffff1660008481548110611dcd57611dcc6146cc565b5b9060005260206000209060050201600401838054611dea9061472a565b80601f0160208091040260200160405190810160405280929190818152602001828054611e169061472a565b8015611e635780601f10611e3857610100808354040283529160200191611e63565b820191906000526020600020905b815481529060010190602001808311611e4657829003601f168201915b50505050509350828054611e769061472a565b80601f0160208091040260200160405190810160405280929190818152602001828054611ea29061472a565b8015611eef5780601f10611ec457610100808354040283529160200191611eef565b820191906000526020600020905b815481529060010190602001808311611ed257829003601f168201915b5050505050925080805480602002602001604051908101604052809291908181526020016000905b82821015611fc3578382906000526020600020018054611f369061472a565b80601f0160208091040260200160405190810160405280929190818152602001828054611f629061472a565b8015611faf5780601f10611f8457610100808354040283529160200191611faf565b820191906000526020600020905b815481529060010190602001808311611f9257829003601f168201915b505050505081526020019060010190611f17565b505050509050945094509450945050612069565b5b8080611fe39061486a565b915050611c2c565b5060008067ffffffffffffffff81111561200857612007613a9a565b5b60405190808252806020026020018201604052801561203b57816020015b60608152602001906001900390816120265790505b5060405180602001604052806000815250919060405180602001604052806000815250919093509350935093505b92959194509250565b6060806000606060005b60018054905081101561243b578660405160200161209a91906146b5565b60405160208183030381529060405280519060200120600182815481106120c4576120c36146cc565b5b90600052602060002090600602016001016040516020016120e591906147f0565b604051602081830303815290604052805190602001201415612428578560405160200161211291906146b5565b604051602081830303815290604052805190602001206001828154811061213c5761213b6146cc565b5b906000526020600020906006020160020160405160200161215d91906147f0565b604051602081830303815290604052805190602001201415612427576001818154811061218d5761218c6146cc565b5b9060005260206000209060060201600001600182815481106121b2576121b16146cc565b5b9060005260206000209060060201600101600183815481106121d7576121d66146cc565b5b906000526020600020906006020160030160009054906101000a900473ffffffffffffffffffffffffffffffffffffffff166001848154811061221d5761221c6146cc565b5b906000526020600020906006020160040183805461223a9061472a565b80601f01602080910402602001604051908101604052809291908181526020018280546122669061472a565b80156122b35780601f10612288576101008083540402835291602001916122b3565b820191906000526020600020905b81548152906001019060200180831161229657829003601f168201915b505050505093508280546122c69061472a565b80601f01602080910402602001604051908101604052809291908181526020018280546122f29061472a565b801561233f5780601f106123145761010080835404028352916020019161233f565b820191906000526020600020905b81548152906001019060200180831161232257829003601f168201915b5050505050925080805480602002602001604051908101604052809291908181526020016000905b828210156124135783829060005260206000200180546123869061472a565b80601f01602080910402602001604051908101604052809291908181526020018280546123b29061472a565b80156123ff5780601f106123d4576101008083540402835291602001916123ff565b820191906000526020600020905b8154815290600101906020018083116123e257829003601f168201915b505050505081526020019060010190612367565b5050505090509450945094509450506124b9565b5b80806124339061486a565b91505061207c565b5060008067ffffffffffffffff81111561245857612457613a9a565b5b60405190808252806020026020018201604052801561248b57816020015b60608152602001906001900390816124765790505b5060405180602001604052806000815250919060405180602001604052806000815250919093509350935093505b92959194509250565b600080600090505b60018054905081101561259057826040516020016124e891906146b5565b6040516020818303038152906040528051906020012060018281548110612512576125116146cc565b5b906000526020600020906006020160010160405160200161253391906147f0565b60405160208183030381529060405280519060200120141561257d5760018181548110612563576125626146cc565b5b906000526020600020906006020160050154915050612596565b80806125889061486a565b9150506124ca565b50600090505b919050565b60005b6002805490508110156126f057826040516020016125bc91906146b5565b60405160208183030381529060405280519060200120600282815481106125e6576125e56146cc565b5b906000526020600020906005020160000160405160200161260791906147f0565b6040516020818303038152906040528051906020012014801561269957508160405160200161263691906146b5565b60405160208183030381529060405280519060200120600282815481106126605761265f6146cc565b5b906000526020600020906005020160010160405160200161268191906147f0565b60405160208183030381529060405280519060200120145b156126dd576001600282815481106126b4576126b36146cc565b5b906000526020600020906005020160040160016101000a81548160ff0219169083151502179055505b80806126e89061486a565b91505061259e565b505050565b600080600090505b6001805490508110156127c3578260405160200161271b91906146b5565b6040516020818303038152906040528051906020012060018281548110612745576127446146cc565b5b906000526020600020906006020160010160405160200161276691906147f0565b6040516020818303038152906040528051906020012014156127b05760018181548110612796576127956146cc565b5b9060005260206000209060060201600501549150506127c9565b80806127bb9061486a565b9150506126fd565b50600090505b919050565b60005b6001805490508110156128a457826040516020016127ef91906146b5565b6040516020818303038152906040528051906020012060018281548110612819576128186146cc565b5b906000526020600020906006020160010160405160200161283a91906147f0565b604051602081830303815290604052805190602001201415612891576040517f08c379a0000000000000000000000000000000000000000000000000000000008152600401612888906149c1565b60405180910390fd5b808061289c9061486a565b9150506127d1565b5060016040518060c001604052808581526020018481526020018381526020013373ffffffffffffffffffffffffffffffffffffffff168152602001600067ffffffffffffffff8111156128fb576128fa613a9a565b5b60405190808252806020026020018201604052801561292e57816020015b60608152602001906001900390816129195790505b50815260200160008152509080600181540180825580915050600190039060005260206000209060060201600090919091909150600082015181600001908051906020019061297e92919061387c565b50602082015181600101908051906020019061299b92919061387c565b5060408201518160020190805190602001906129b892919061387c565b5060608201518160030160006101000a81548173ffffffffffffffffffffffffffffffffffffffff021916908373ffffffffffffffffffffffffffffffffffffffff1602179055506080820151816004019080519060200190612a1c929190613902565b5060a082015181600501555050505050565b60005b600280549050811015612b085781604051602001612a4f91906146b5565b6040516020818303038152906040528051906020012060028281548110612a7957612a786146cc565b5b9060005260206000209060050201600001604051602001612a9a91906147f0565b604051602081830303815290604052805190602001201415612af557600160028281548110612acc57612acb6146cc565b5b906000526020600020906005020160040160026101000a81548160ff0219169083151502179055505b8080612b009061486a565b915050612a31565b5050565b6060806000606060005b600080549050811015612e5c5785604051602001612b3491906146b5565b6040516020818303038152906040528051906020012060008281548110612b5e57612b5d6146cc565b5b9060005260206000209060050201600001604051602001612b7f91906147f0565b604051602081830303815290604052805190602001201415612e495760008181548110612baf57612bae6146cc565b5b906000526020600020906005020160000160008281548110612bd457612bd36146cc565b5b906000526020600020906005020160010160008381548110612bf957612bf86146cc565b5b906000526020600020906005020160030160009054906101000a900473ffffffffffffffffffffffffffffffffffffffff1660008481548110612c3f57612c3e6146cc565b5b9060005260206000209060050201600401838054612c5c9061472a565b80601f0160208091040260200160405190810160405280929190818152602001828054612c889061472a565b8015612cd55780601f10612caa57610100808354040283529160200191612cd5565b820191906000526020600020905b815481529060010190602001808311612cb857829003601f168201915b50505050509350828054612ce89061472a565b80601f0160208091040260200160405190810160405280929190818152602001828054612d149061472a565b8015612d615780601f10612d3657610100808354040283529160200191612d61565b820191906000526020600020905b815481529060010190602001808311612d4457829003601f168201915b5050505050925080805480602002602001604051908101604052809291908181526020016000905b82821015612e35578382906000526020600020018054612da89061472a565b80601f0160208091040260200160405190810160405280929190818152602001828054612dd49061472a565b8015612e215780601f10612df657610100808354040283529160200191612e21565b820191906000526020600020905b815481529060010190602001808311612e0457829003601f168201915b505050505081526020019060010190612d89565b505050509050945094509450945050612eda565b8080612e549061486a565b915050612b16565b5060008067ffffffffffffffff811115612e7957612e78613a9a565b5b604051908082528060200260200182016040528015612eac57816020015b6060815260200190600190039081612e975790505b5060405180602001604052806000815250919060405180602001604052806000815250919093509350935093505b9193509193565b6060600060028054905067ffffffffffffffff811115612f0457612f03613a9a565b5b604051908082528060200260200182016040528015612f3d57816020015b612f2a613962565b815260200190600190039081612f225790505b5090506000805b6002805490508110156132475784604051602001612f6291906146b5565b6040516020818303038152906040528051906020012060028281548110612f8c57612f8b6146cc565b5b9060005260206000209060050201600101604051602001612fad91906147f0565b6040516020818303038152906040528051906020012014156132345760028181548110612fdd57612fdc6146cc565b5b90600052602060002090600502016040518060e00160405290816000820180546130069061472a565b80601f01602080910402602001604051908101604052809291908181526020018280546130329061472a565b801561307f5780601f106130545761010080835404028352916020019161307f565b820191906000526020600020905b81548152906001019060200180831161306257829003601f168201915b505050505081526020016001820180546130989061472a565b80601f01602080910402602001604051908101604052809291908181526020018280546130c49061472a565b80156131115780601f106130e657610100808354040283529160200191613111565b820191906000526020600020905b8154815290600101906020018083116130f457829003601f168201915b5050505050815260200160028201805461312a9061472a565b80601f01602080910402602001604051908101604052809291908181526020018280546131569061472a565b80156131a35780601f10613178576101008083540402835291602001916131a3565b820191906000526020600020905b81548152906001019060200180831161318657829003601f168201915b50505050508152602001600382015481526020016004820160009054906101000a900460ff161515151581526020016004820160019054906101000a900460ff161515151581526020016004820160029054906101000a900460ff16151515158152505083838151811061321a576132196146cc565b5b602002602001018190525081806132309061486a565b9250505b808061323f9061486a565b915050612f44565b508192505050919050565b606060005b6001805490508110156137cd578260405160200161327591906146b5565b604051602081830303815290604052805190602001206001828154811061329f5761329e6146cc565b5b90600052602060002090600602016001016040516020016132c091906147f0565b6040516020818303038152906040528051906020012014156137ba576000600182815481106132f2576132f16146cc565b5b90600052602060002090600602016004018054905067ffffffffffffffff8111156133205761331f613a9a565b5b60405190808252806020026020018201604052801561335957816020015b6133466139a5565b81526020019060019003908161333e5790505b50905060005b60018381548110613373576133726146cc565b5b9060005260206000209060060201600401805490508110156137af5760005b60008054905081101561379b57600184815481106133b3576133b26146cc565b5b906000526020600020906006020160040182815481106133d6576133d56146cc565b5b906000526020600020016040516020016133f091906147f0565b604051602081830303815290604052805190602001206000828154811061341a576134196146cc565b5b906000526020600020906005020160000160405160200161343b91906147f0565b604051602081830303815290604052805190602001201415613788576000818154811061346b5761346a6146cc565b5b90600052602060002090600502016040518060a00160405290816000820180546134949061472a565b80601f01602080910402602001604051908101604052809291908181526020018280546134c09061472a565b801561350d5780601f106134e25761010080835404028352916020019161350d565b820191906000526020600020905b8154815290600101906020018083116134f057829003601f168201915b505050505081526020016001820180546135269061472a565b80601f01602080910402602001604051908101604052809291908181526020018280546135529061472a565b801561359f5780601f106135745761010080835404028352916020019161359f565b820191906000526020600020905b81548152906001019060200180831161358257829003601f168201915b505050505081526020016002820180546135b89061472a565b80601f01602080910402602001604051908101604052809291908181526020018280546135e49061472a565b80156136315780601f1061360657610100808354040283529160200191613631565b820191906000526020600020905b81548152906001019060200180831161361457829003601f168201915b505050505081526020016003820160009054906101000a900473ffffffffffffffffffffffffffffffffffffffff1673ffffffffffffffffffffffffffffffffffffffff1673ffffffffffffffffffffffffffffffffffffffff16815260200160048201805480602002602001604051908101604052809291908181526020016000905b828210156137615783829060005260206000200180546136d49061472a565b80601f01602080910402602001604051908101604052809291908181526020018280546137009061472a565b801561374d5780601f106137225761010080835404028352916020019161374d565b820191906000526020600020905b81548152906001019060200180831161373057829003601f168201915b5050505050815260200190600101906136b5565b505050508152505083838151811061377c5761377b6146cc565b5b60200260200101819052505b80806137939061486a565b915050613392565b5080806137a79061486a565b91505061335f565b50809250505061382b565b80806137c59061486a565b915050613257565b5060008067ffffffffffffffff8111156137ea576137e9613a9a565b5b60405190808252806020026020018201604052801561382357816020015b6138106139a5565b8152602001906001900390816138085790505b509050809150505b919050565b6040518060c00160405280606081526020016060815260200160608152602001600073ffffffffffffffffffffffffffffffffffffffff16815260200160608152602001600081525090565b8280546138889061472a565b90600052602060002090601f0160209004810192826138aa57600085556138f1565b82601f106138c357805160ff19168380011785556138f1565b828001600101855582156138f1579182015b828111156138f05782518255916020019190600101906138d5565b5b5090506138fe91906139ea565b5090565b828054828255906000526020600020908101928215613951579160200282015b8281111561395057825182908051906020019061394092919061387c565b5091602001919060010190613922565b5b50905061395e9190613a07565b5090565b6040518060e00160405280606081526020016060815260200160608152602001600081526020016000151581526020016000151581526020016000151581525090565b6040518060a00160405280606081526020016060815260200160608152602001600073ffffffffffffffffffffffffffffffffffffffff168152602001606081525090565b5b80821115613a035760008160009055506001016139eb565b5090565b5b80821115613a275760008181613a1e9190613a2b565b50600101613a08565b5090565b508054613a379061472a565b6000825580601f10613a495750613a68565b601f016020900490600052602060002090810190613a6791906139ea565b5b50565b6000604051905090565b600080fd5b600080fd5b600080fd5b600080fd5b6000601f19601f8301169050919050565b7f4e487b7100000000000000000000000000000000000000000000000000000000600052604160045260246000fd5b613ad282613a89565b810181811067ffffffffffffffff82111715613af157613af0613a9a565b5b80604052505050565b6000613b04613a6b565b9050613b108282613ac9565b919050565b600067ffffffffffffffff821115613b3057613b2f613a9a565b5b613b3982613a89565b9050602081019050919050565b82818337600083830152505050565b6000613b68613b6384613b15565b613afa565b905082815260208101848484011115613b8457613b83613a84565b5b613b8f848285613b46565b509392505050565b600082601f830112613bac57613bab613a7f565b5b8135613bbc848260208601613b55565b91505092915050565b600060208284031215613bdb57613bda613a75565b5b600082013567ffffffffffffffff811115613bf957613bf8613a7a565b5b613c0584828501613b97565b91505092915050565b600081519050919050565b600082825260208201905092915050565b60005b83811015613c48578082015181840152602081019050613c2d565b83811115613c57576000848401525b50505050565b6000613c6882613c0e565b613c728185613c19565b9350613c82818560208601613c2a565b613c8b81613a89565b840191505092915050565b600073ffffffffffffffffffffffffffffffffffffffff82169050919050565b6000613cc182613c96565b9050919050565b613cd181613cb6565b82525050565b600081519050919050565b600082825260208201905092915050565b6000819050602082019050919050565b600082825260208201905092915050565b6000613d1f82613c0e565b613d298185613d03565b9350613d39818560208601613c2a565b613d4281613a89565b840191505092915050565b6000613d598383613d14565b905092915050565b6000602082019050919050565b6000613d7982613cd7565b613d838185613ce2565b935083602082028501613d9585613cf3565b8060005b85811015613dd15784840389528151613db28582613d4d565b9450613dbd83613d61565b925060208a01995050600181019050613d99565b50829750879550505050505092915050565b6000819050919050565b613df681613de3565b82525050565b600060a0820190508181036000830152613e168188613c5d565b90508181036020830152613e2a8187613c5d565b9050613e396040830186613cc8565b8181036060830152613e4b8185613d6e565b9050613e5a6080830184613ded565b9695505050505050565b600081519050919050565b600082825260208201905092915050565b6000819050602082019050919050565b613e9981613cb6565b82525050565b600082825260208201905092915050565b6000613ebb82613cd7565b613ec58185613e9f565b935083602082028501613ed785613cf3565b8060005b85811015613f135784840389528151613ef48582613d4d565b9450613eff83613d61565b925060208a01995050600181019050613edb565b50829750879550505050505092915050565b613f2e81613de3565b82525050565b600060c0830160008301518482036000860152613f518282613d14565b91505060208301518482036020860152613f6b8282613d14565b91505060408301518482036040860152613f858282613d14565b9150506060830151613f9a6060860182613e90565b5060808301518482036080860152613fb28282613eb0565b91505060a0830151613fc760a0860182613f25565b508091505092915050565b6000613fde8383613f34565b905092915050565b6000602082019050919050565b6000613ffe82613e64565b6140088185613e6f565b93508360208202850161401a85613e80565b8060005b8581101561405657848403895281516140378582613fd2565b945061404283613fe6565b925060208a0199505060018101905061401e565b50829750879550505050505092915050565b600060208201905081810360008301526140828184613ff3565b905092915050565b61409381613de3565b811461409e57600080fd5b50565b6000813590506140b08161408a565b92915050565b600080600080608085870312156140d0576140cf613a75565b5b600085013567ffffffffffffffff8111156140ee576140ed613a7a565b5b6140fa87828801613b97565b945050602085013567ffffffffffffffff81111561411b5761411a613a7a565b5b61412787828801613b97565b935050604085013567ffffffffffffffff81111561414857614147613a7a565b5b61415487828801613b97565b9250506060614165878288016140a1565b91505092959194509250565b60008060006060848603121561418a57614189613a75565b5b600084013567ffffffffffffffff8111156141a8576141a7613a7a565b5b6141b486828701613b97565b935050602084013567ffffffffffffffff8111156141d5576141d4613a7a565b5b6141e186828701613b97565b925050604084013567ffffffffffffffff81111561420257614201613a7a565b5b61420e86828701613b97565b9150509250925092565b6000806040838503121561422f5761422e613a75565b5b600083013567ffffffffffffffff81111561424d5761424c613a7a565b5b61425985828601613b97565b925050602083013567ffffffffffffffff81111561427a57614279613a7a565b5b61428685828601613b97565b9150509250929050565b600080604083850312156142a7576142a6613a75565b5b600083013567ffffffffffffffff8111156142c5576142c4613a7a565b5b6142d185828601613b97565b92505060206142e2858286016140a1565b9150509250929050565b600081519050919050565b600082825260208201905092915050565b6000819050602082019050919050565b60008115159050919050565b61432d81614318565b82525050565b600060e08301600083015184820360008601526143508282613d14565b9150506020830151848203602086015261436a8282613d14565b915050604083015184820360408601526143848282613d14565b91505060608301516143996060860182613f25565b5060808301516143ac6080860182614324565b5060a08301516143bf60a0860182614324565b5060c08301516143d260c0860182614324565b508091505092915050565b60006143e98383614333565b905092915050565b6000602082019050919050565b6000614409826142ec565b61441381856142f7565b93508360208202850161442585614308565b8060005b85811015614461578484038952815161444285826143dd565b945061444d836143f1565b925060208a01995050600181019050614429565b50829750879550505050505092915050565b6000602082019050818103600083015261448d81846143fe565b905092915050565b600081519050919050565b600082825260208201905092915050565b6000819050602082019050919050565b600060a08301600083015184820360008601526144de8282613d14565b915050602083015184820360208601526144f88282613d14565b915050604083015184820360408601526145128282613d14565b91505060608301516145276060860182613e90565b506080830151848203608086015261453f8282613eb0565b9150508091505092915050565b600061455883836144c1565b905092915050565b6000602082019050919050565b600061457882614495565b61458281856144a0565b935083602082028501614594856144b1565b8060005b858110156145d057848403895281516145b1858261454c565b94506145bc83614560565b925060208a01995050600181019050614598565b50829750879550505050505092915050565b600060208201905081810360008301526145fc818461456d565b905092915050565b6000608082019050818103600083015261461e8187613c5d565b905081810360208301526146328186613c5d565b90506146416040830185613cc8565b81810360608301526146538184613d6e565b905095945050505050565b60006020820190506146736000830184613ded565b92915050565b600081905092915050565b600061468f82613c0e565b6146998185614679565b93506146a9818560208601613c2a565b80840191505092915050565b60006146c18284614684565b915081905092915050565b7f4e487b7100000000000000000000000000000000000000000000000000000000600052603260045260246000fd5b7f4e487b7100000000000000000000000000000000000000000000000000000000600052602260045260246000fd5b6000600282049050600182168061474257607f821691505b60208210811415614756576147556146fb565b5b50919050565b60008190508160005260206000209050919050565b6000815461477e8161472a565b6147888186614679565b945060018216600081146147a357600181146147b4576147e7565b60ff198316865281860193506147e7565b6147bd8561475c565b60005b838110156147df578154818901526001820191506020810190506147c0565b838801955050505b50505092915050565b60006147fc8284614771565b915081905092915050565b7f4e487b7100000000000000000000000000000000000000000000000000000000600052601160045260246000fd5b600061484182613de3565b915061484c83613de3565b92508282101561485f5761485e614807565b5b828203905092915050565b600061487582613de3565b91507fffffffffffffffffffffffffffffffffffffffffffffffffffffffffffffffff8214156148a8576148a7614807565b5b600182019050919050565b7f556e697665727369747920616c72656164792065786973747300000000000000600082015250565b60006148e9601983613c19565b91506148f4826148b3565b602082019050919050565b60006020820190508181036000830152614918816148dc565b9050919050565b600061492a82613de3565b915061493583613de3565b9250827fffffffffffffffffffffffffffffffffffffffffffffffffffffffffffffffff0382111561496a57614969614807565b5b828201905092915050565b7f53747564656e7420616c72656164792065786973747300000000000000000000600082015250565b60006149ab601683613c19565b91506149b682614975565b602082019050919050565b600060208201905081810360008301526149da8161499e565b905091905056fea2646970667358221220bb2890119683dececac650604e649ceb0299762450ab3ad810fa4a87310ab31464736f6c63430008090033",
  "linkReferences": {},
  "deployedLinkReferences": {}
}