{
  "_format": "hh-sol-artifact-1",
  "contractName": "StudentCreditSystem",
  "sourceName": "contracts/StudentCreditSystem.sol",
  "abi": [
    {
      "inputs": [],
      "stateMutability": "nonpayable",
      "type": "constructor"
    },
    {
      "anonymous": false,
      "inputs": [
        {
          "indexed": false,
          "internalType": "uint256",
          "name": "transactionId",
          "type": "uint256"
        },
        {
          "indexed": false,
          "internalType": "address",
          "name": "approver",
          "type": "address"
        }
      ],
      "name": "TransactionConfirmed",
      "type": "event"
    },
    {
      "anonymous": false,
      "inputs": [
        {
          "indexed": false,
          "internalType": "uint256",
          "name": "transactionId",
          "type": "uint256"
        }
      ],
      "name": "TransactionExecuted",
      "type": "event"
    },
    {
      "anonymous": false,
      "inputs": [
        {
          "indexed": false,
          "internalType": "uint256",
          "name": "transactionId",
          "type": "uint256"
        },
        {
          "indexed": false,
          "internalType": "address",
          "name": "sender",
          "type": "address"
        },
        {
          "indexed": false,
          "internalType": "address",
          "name": "receiver",
          "type": "address"
        },
        {
          "indexed": false,
          "internalType": "uint256",
          "name": "amount",
          "type": "uint256"
        }
      ],
      "name": "TransactionSubmitted",
      "type": "event"
    },
    {
      "inputs": [
        {
          "internalType": "uint256",
          "name": "_transactionId",
          "type": "uint256"
        }
      ],
      "name": "confirmTransaction",
      "outputs": [],
      "stateMutability": "nonpayable",
      "type": "function"
    },
    {
      "inputs": [
        {
          "internalType": "uint256",
          "name": "_transactionId",
          "type": "uint256"
        }
      ],
      "name": "executeTransaction",
      "outputs": [],
      "stateMutability": "payable",
      "type": "function"
    },
    {
      "inputs": [
        {
          "internalType": "uint256",
          "name": "",
          "type": "uint256"
        },
        {
          "internalType": "address",
          "name": "",
          "type": "address"
        }
      ],
      "name": "isConfirmedByInstitute",
      "outputs": [
        {
          "internalType": "bool",
          "name": "",
          "type": "bool"
        }
      ],
      "stateMutability": "view",
      "type": "function"
    },
    {
      "inputs": [
        {
          "internalType": "address",
          "name": "_to",
          "type": "address"
        },
        {
          "internalType": "address[]",
          "name": "_institutes",
          "type": "address[]"
        }
      ],
      "name": "submitTransaction",
      "outputs": [],
      "stateMutability": "payable",
      "type": "function"
    },
    {
      "inputs": [
        {
          "internalType": "uint256",
          "name": "",
          "type": "uint256"
        }
      ],
      "name": "transactions",
      "outputs": [
        {
          "internalType": "address",
          "name": "to",
          "type": "address"
        },
        {
          "internalType": "uint256",
          "name": "value",
          "type": "uint256"
        },
        {
          "internalType": "bool",
          "name": "executed",
          "type": "bool"
        }
      ],
      "stateMutability": "view",
      "type": "function"
    }
  ],
  "bytecode": "0x608060405234801561001057600080fd5b50611468806100206000396000f3fe60806040526004361061004a5760003560e01c80634629ecf31461004f5780639ace38c21461008c578063c01a8c84146100cb578063e9b35157146100f4578063ee22610b14610110575b600080fd5b34801561005b57600080fd5b5061007660048036038101906100719190610c2c565b61012c565b6040516100839190610c87565b60405180910390f35b34801561009857600080fd5b506100b360048036038101906100ae9190610ca2565b61015b565b6040516100c293929190610ced565b60405180910390f35b3480156100d757600080fd5b506100f260048036038101906100ed9190610ca2565b6101c2565b005b61010e60048036038101906101099190610e7d565b6103ee565b005b61012a60048036038101906101259190610ca2565b61079c565b005b60006020528160005260406000206020528060005260406000206000915091509054906101000a900460ff1681565b6001818154811061016b57600080fd5b90600052602060002090600402016000915090508060000160009054906101000a900473ffffffffffffffffffffffffffffffffffffffff16908060010154908060020160009054906101000a900460ff16905083565b6001805490508110610209576040517f08c379a000000000000000000000000000000000000000000000000000000000815260040161020090610f36565b60405180910390fd5b60006001828154811061021f5761021e610f56565b5b9060005260206000209060040201905060008083815260200190815260200160002060003373ffffffffffffffffffffffffffffffffffffffff1673ffffffffffffffffffffffffffffffffffffffff16815260200190815260200160002060009054906101000a900460ff16156102cc576040517f08c379a00000000000000000000000000000000000000000000000000000000081526004016102c390610ff7565b60405180910390fd5b600160008084815260200190815260200160002060003373ffffffffffffffffffffffffffffffffffffffff1673ffffffffffffffffffffffffffffffffffffffff16815260200190815260200160002060006101000a81548160ff02191690831515021790555080600301339080600181540180825580915050600190039060005260206000200160009091909190916101000a81548173ffffffffffffffffffffffffffffffffffffffff021916908373ffffffffffffffffffffffffffffffffffffffff1602179055507f15c2f311c9e0f53b50388279894aeff029a3457884a6601e924fca879e12adcc82336040516103ca929190611017565b60405180910390a16103db82610988565b156103ea576103e98261079c565b5b5050565b600073ffffffffffffffffffffffffffffffffffffffff168273ffffffffffffffffffffffffffffffffffffffff16141561045e576040517f08c379a00000000000000000000000000000000000000000000000000000000081526004016104559061108c565b60405180910390fd5b600034116104a1576040517f08c379a00000000000000000000000000000000000000000000000000000000081526004016104989061111e565b60405180910390fd5b6002815110156104e6576040517f08c379a00000000000000000000000000000000000000000000000000000000081526004016104dd906111b0565b60405180910390fd5b60006001805490509050600160405180608001604052808573ffffffffffffffffffffffffffffffffffffffff168152602001348152602001600015158152602001600067ffffffffffffffff81111561054357610542610d3a565b5b6040519080825280602002602001820160405280156105715781602001602082028036833780820191505090505b50815250908060018154018082558091505060019003906000526020600020906004020160009091909190915060008201518160000160006101000a81548173ffffffffffffffffffffffffffffffffffffffff021916908373ffffffffffffffffffffffffffffffffffffffff1602179055506020820151816001015560408201518160020160006101000a81548160ff021916908315150217905550606082015181600301908051906020019061062b929190610add565b50505060005b825181101561075957600073ffffffffffffffffffffffffffffffffffffffff1683828151811061066557610664610f56565b5b602002602001015173ffffffffffffffffffffffffffffffffffffffff1614156106c4576040517f08c379a00000000000000000000000000000000000000000000000000000000081526004016106bb9061121c565b60405180910390fd5b600080600084815260200190815260200160002060008584815181106106ed576106ec610f56565b5b602002602001015173ffffffffffffffffffffffffffffffffffffffff1673ffffffffffffffffffffffffffffffffffffffff16815260200190815260200160002060006101000a81548160ff02191690831515021790555080806107519061126b565b915050610631565b507f753dcda37efe0bc3675e04e24d1fb08b70681f14675eed4b6e7978495caf2ca08133853460405161078f94939291906112b4565b60405180910390a1505050565b60018054905081106107e3576040517f08c379a00000000000000000000000000000000000000000000000000000000081526004016107da90610f36565b60405180910390fd5b6000600182815481106107f9576107f8610f56565b5b906000526020600020906004020190508060020160009054906101000a900460ff161561085b576040517f08c379a000000000000000000000000000000000000000000000000000000000815260040161085290611345565b60405180910390fd5b60008160000160009054906101000a900473ffffffffffffffffffffffffffffffffffffffff1673ffffffffffffffffffffffffffffffffffffffff1682600101546040516108a990611396565b60006040518083038185875af1925050503d80600081146108e6576040519150601f19603f3d011682016040523d82523d6000602084013e6108eb565b606091505b505090508061092f576040517f08c379a0000000000000000000000000000000000000000000000000000000008152600401610926906113f7565b60405180910390fd5b60018260020160006101000a81548160ff0219169083151502179055507f15ed165a284872ea7017f03df402a0cadfbfab588320ffaf83f160c2f82781c78360405161097b9190611417565b60405180910390a1505050565b600060018054905082106109d1576040517f08c379a00000000000000000000000000000000000000000000000000000000081526004016109c890610f36565b60405180910390fd5b6000600183815481106109e7576109e6610f56565b5b906000526020600020906004020190506000805b8260030180549050811015610ace576000808681526020019081526020016000206000846003018381548110610a3457610a33610f56565b5b9060005260206000200160009054906101000a900473ffffffffffffffffffffffffffffffffffffffff1673ffffffffffffffffffffffffffffffffffffffff1673ffffffffffffffffffffffffffffffffffffffff16815260200190815260200160002060009054906101000a900460ff1615610abb578180610ab79061126b565b9250505b8080610ac69061126b565b9150506109fb565b50600281101592505050919050565b828054828255906000526020600020908101928215610b56579160200282015b82811115610b555782518260006101000a81548173ffffffffffffffffffffffffffffffffffffffff021916908373ffffffffffffffffffffffffffffffffffffffff16021790555091602001919060010190610afd565b5b509050610b639190610b67565b5090565b5b80821115610b80576000816000905550600101610b68565b5090565b6000604051905090565b600080fd5b600080fd5b6000819050919050565b610bab81610b98565b8114610bb657600080fd5b50565b600081359050610bc881610ba2565b92915050565b600073ffffffffffffffffffffffffffffffffffffffff82169050919050565b6000610bf982610bce565b9050919050565b610c0981610bee565b8114610c1457600080fd5b50565b600081359050610c2681610c00565b92915050565b60008060408385031215610c4357610c42610b8e565b5b6000610c5185828601610bb9565b9250506020610c6285828601610c17565b9150509250929050565b60008115159050919050565b610c8181610c6c565b82525050565b6000602082019050610c9c6000830184610c78565b92915050565b600060208284031215610cb857610cb7610b8e565b5b6000610cc684828501610bb9565b91505092915050565b610cd881610bee565b82525050565b610ce781610b98565b82525050565b6000606082019050610d026000830186610ccf565b610d0f6020830185610cde565b610d1c6040830184610c78565b949350505050565b600080fd5b6000601f19601f8301169050919050565b7f4e487b7100000000000000000000000000000000000000000000000000000000600052604160045260246000fd5b610d7282610d29565b810181811067ffffffffffffffff82111715610d9157610d90610d3a565b5b80604052505050565b6000610da4610b84565b9050610db08282610d69565b919050565b600067ffffffffffffffff821115610dd057610dcf610d3a565b5b602082029050602081019050919050565b600080fd5b6000610df9610df484610db5565b610d9a565b90508083825260208201905060208402830185811115610e1c57610e1b610de1565b5b835b81811015610e455780610e318882610c17565b845260208401935050602081019050610e1e565b5050509392505050565b600082601f830112610e6457610e63610d24565b5b8135610e74848260208601610de6565b91505092915050565b60008060408385031215610e9457610e93610b8e565b5b6000610ea285828601610c17565b925050602083013567ffffffffffffffff811115610ec357610ec2610b93565b5b610ecf85828601610e4f565b9150509250929050565b600082825260208201905092915050565b7f496e76616c6964205472616e73616374696f6e20496400000000000000000000600082015250565b6000610f20601683610ed9565b9150610f2b82610eea565b602082019050919050565b60006020820190508181036000830152610f4f81610f13565b9050919050565b7f4e487b7100000000000000000000000000000000000000000000000000000000600052603260045260246000fd5b7f5472616e73616374696f6e20497320416c726561647920436f6e6669726d656460008201527f2042792054686520496e73746974757465000000000000000000000000000000602082015250565b6000610fe1603183610ed9565b9150610fec82610f85565b604082019050919050565b6000602082019050818103600083015261101081610fd4565b9050919050565b600060408201905061102c6000830185610cde565b6110396020830184610ccf565b9392505050565b7f496e76616c696420526563656976657227732041646472657373000000000000600082015250565b6000611076601a83610ed9565b915061108182611040565b602082019050919050565b600060208201905081810360008301526110a581611069565b9050919050565b7f5472616e7366657220416d6f756e74204d75737420426520477265617465722060008201527f5468616e20300000000000000000000000000000000000000000000000000000602082015250565b6000611108602683610ed9565b9150611113826110ac565b604082019050919050565b60006020820190508181036000830152611137816110fb565b9050919050565b7f4174206c65617374203220696e7374697475746573206172652072657175697260008201527f6564000000000000000000000000000000000000000000000000000000000000602082015250565b600061119a602283610ed9565b91506111a58261113e565b604082019050919050565b600060208201905081810360008301526111c98161118d565b9050919050565b7f496e76616c696420496e73746974757465204164647265737300000000000000600082015250565b6000611206601983610ed9565b9150611211826111d0565b602082019050919050565b60006020820190508181036000830152611235816111f9565b9050919050565b7f4e487b7100000000000000000000000000000000000000000000000000000000600052601160045260246000fd5b600061127682610b98565b91507fffffffffffffffffffffffffffffffffffffffffffffffffffffffffffffffff8214156112a9576112a861123c565b5b600182019050919050565b60006080820190506112c96000830187610cde565b6112d66020830186610ccf565b6112e36040830185610ccf565b6112f06060830184610cde565b95945050505050565b7f5472616e73616374696f6e20697320616c726561647920657865637574656400600082015250565b600061132f601f83610ed9565b915061133a826112f9565b602082019050919050565b6000602082019050818103600083015261135e81611322565b9050919050565b600081905092915050565b50565b6000611380600083611365565b915061138b82611370565b600082019050919050565b60006113a182611373565b9150819050919050565b7f5472616e73616374696f6e20457865637574696f6e204661696c656400000000600082015250565b60006113e1601c83610ed9565b91506113ec826113ab565b602082019050919050565b60006020820190508181036000830152611410816113d4565b9050919050565b600060208201905061142c6000830184610cde565b9291505056fea264697066735822122005e7c2ad2e1ef3b9023f857f937eb0b695daba6c9e71877671a1a3dbcc4ca78c64736f6c63430008090033",
  "linkReferences": {},
  "deployedLinkReferences": {}
}